:100000000C9463000C948B000C948B000C94BF0731
:100010000C94BF070C94BF070C948B000C948B00BE
:100020000C948B000C948B000C948B000C948B0024
:100030000C948B000C948B000C948B000C948B0014
:100040000C94DA0A0C948B000C94DA090C94B40921
:100050000C948B000C948B000C948B000C948B00F4
:100060000C948B000C948B000000000024002700EF
:100070002A0000000008000201000003040700003D
:1000800000000000000000000000250028002B00F8
:1000900000000000230026002900040404040404D6
:1000A0000404020202020202030303030303010227
:1000B00004081020408001020408102001020408F6
:1000C0001020271D3D1711241FBECFEFD8E0DEBF43
:1000D000CDBF12E0A0E0B1E0E0E4F4E402C005909E
:1000E0000D92AA3AB107D9F725E0AAEAB2E001C019
:1000F0001D92A632B207E1F710E0C2E6D0E004C0DC
:100100002197FE010E94F41FC136D107C9F70E9452
:1001100047170C9413220C94000080E3FB018083AA
:100120003296842F82958F7090E1899F4019112417
:100130004A3014F4405D01C0495C4293482F81115C
:10014000F0CF08952091EC023091ED022817390785
:1001500071F49091EA028091EB02981741F0E091DE
:10016000EA02F0E0E655FD4F808190E008958FEFC0
:100170009FEF089508951F93CF93DF93DC015C9662
:100180002D913C915D972115310539F481E090E086
:1001900013969C938E9312973DC05196ED91FC91CE
:1001A000529750969C915097892F80951FB75E96D5
:1001B0004C915E9741FB772770F941FD6095F8946B
:1001C0004081772311F0492B01C048234083E90186
:1001D0002197F1F748E0508160FF02C0592B01C020
:1001E00058235083E9012197F1F76695415099F71B
:1001F000772321F090818923808303C08081982B0D
:1002000090831FBF5C968D919C915D970197F1F74C
:1002100021E030E0C901DF91CF911F910895209135
:10022000EC023091ED022817390771F48091EB024E
:100230002091EA0290E0805C9F4F821B910960E46C
:1002400070E00E94C51F089580E090E0089520911D
:10025000EC023091ED0228173907B9F49091EA02C7
:100260008091EB02981789F0E091EA02F0E0E65500
:10027000FD4F80812091EA0230E02F5F3F4F2F73C6
:1002800033272093EA0290E008958FEF9FEF0895BF
:10029000EF92FF920F931F93CF93DF93CDB7DEB70B
:1002A0002C970FB6F894DEBF0FBECDBF8C017A013C
:1002B00018861F821A8619861C861B866115710591
:1002C00061F0FB0101900020E9F73197AF01461B77
:1002D000570BCE0107960E94F51083ED91E00E9426
:1002E0007B0DC8010E947B0D85EE91E00E947B0D85
:1002F0004B855C856F81788580E793E00E94CD0C0B
:1003000088EE91E00E947B0D1A8219821C821B826A
:100310001E821D8240E050E06DEE71E0CE0101963C
:100320000E94F5108B859C85009779F187018E15C9
:100330009F0508F48C01EF81F885E00FF11FF08034
:1003400010826F8178856115710569F0FB0101905C
:100350000020E9F73197AF01461B570BCE010196FC
:100360000E94F5100CC089819A81009711F00E94BB
:100370008F201A8219821E821D821C821B828F810D
:100380009885FC01E00FF11FF0824D815E8169814B
:100390007A8180E793E00E94CD0C6BEE71E080E7FC
:1003A00093E00E94281789819A81009759F00E9452
:1003B000EF1EAB01BC0177FF08C085EC94E00E9402
:1003C0007E1108C040E050E0BA012AE085EC94E0DC
:1003D0000E9435116BEE71E085EC94E00E942817C5
:1003E00085EC94E00E940F01892B59F48EEE91E088
:1003F0000E94680D68EB7BE080E090E00E94940A28
:10040000EFCF85EC94E00E940F01892B89F085ECF9
:1004100094E00E942701F5CF89EF91E00E947B0DC7
:100420000E94EA0E882349F087E192E00E94680D5D
:100430000E94330D882381F323C081E292E00E9461
:100440007B0D4091B6045091B704052E000C660B4D
:10045000770B77FF05C080E793E00E947E1105C00F
:100460002AE080E793E00E9435118DE292E00E943D
:10047000680D68E873E180E090E00E94940AD8CFAC
:100480000E94330D8823B9F045E050E06DE174E03F
:1004900085E492E00E94800DFC01E55EFB4F2FE4B5
:1004A00022832BE42383AC01435051096DE174E0B6
:1004B00080E30E94A10D89819A810E948F208F8103
:1004C00098850E948F202C960FB6F894DEBF0FBE41
:1004D000CDBFDF91CF911F910F91FF90EF900895C5
:1004E0002F923F924F925F926F927F928F929F9244
:1004F000AF92BF92CF92DF92EF92FF920F931F9332
:10050000CF93DF93CDB7DEB765970FB6F894DEBF14
:100510000FBECDBF7C016B013A01FB0120E080E002
:1005200090E06AE03191332309F140ED430F4A3006
:1005300080F4689FA001699F500D1124CA01C097E3
:10054000830F911D37FD9A958F3F910559F350F315
:1005500013C03E3289F4233079F0D301A20FB11DCC
:1005600012968C932F5F80E090E0DCCF233021F453
:10057000F301858381E021C0F701428153816481C9
:1005800075818091170490911804A0911904B0917D
:100590001A04481759076A077B0709F49EC10E948D
:1005A000CE0A8701085F1F4F6F7077277C5FC801F5
:1005B0000E94B713813019F080E090E0F3C185EC20
:1005C00091E09A838983F70182819381A481B58127
:1005D0008B839C83AD83BE8345E350E0BE016F5F98
:1005E0007F4FC8010E94D414892B19F4C12CD12C3F
:1005F0006FC10E94CE0AF70177836683762767274B
:1006000076277A83698342E050E0BE016F5F7F4FB7
:10061000C8010E94F71281E090E09E878D8742E03A
:1006200050E0BE01635F7F4FC8010E94F71280E077
:1006300091E09E878D8742E050E0BE01635F7F4F6F
:10064000C8010E94F7121E861D8642E050E0BE01DE
:10065000635F7F4FC8010E94F71242E050E0BE0185
:10066000635F7F4FC8010E94F71242E050E0BE0175
:10067000635F7F4FC8010E94F7125601F501808128
:10068000882311F1F6015F018191811115C04501A7
:100690008C189D081814190494F48F8641E050E0DA
:1006A000BE01615F7F4FC8010E94F712A401B6012D
:1006B000C8010E94F71203C08E3229F7E8CF650106
:1006C000FFEFCF1ADF0ADACF1F8641E050E0BE010C
:1006D000615F7F4FC8010E94F712C12CDD24D394C3
:1006E000DE86CD8642E050E0BE01635F7F4FC801E9
:1006F0000E94F712DE86CD8642E050E0BE01635FC5
:100700007F4FC8010E94F712C8010E941414892B60
:1007100009F46CCF63E0A62EB12CF2E06F0E711CD1
:100720000E94CE0A1B012C01C8010E949E121816BD
:100730001906A4F00E94CE0ADC01CB0182199309AC
:10074000A409B50989389341A105B105D0F462E344
:1007500070E080E090E00E94940AE6CFF7014281C9
:10076000538164817581808D918DA28DB38D4817E1
:1007700059076A077B0741F4848D958DC59721F44D
:1007800006C02FEF3FEF9AC02EEF3FEF97C0F70163
:1007900081A192A10C970CF4A6C04CE050E0BE01E0
:1007A0006F5F7F4FC8010E942F128B8190E0982FBE
:1007B00088272C81822B9A8B898B298130E0322FDC
:1007C00022274A81242BF70146815781421753077C
:1007D00009F086C097FF84C08F709270892B09F052
:1007E000DEC0CF80D12CDC2CCC248885C82AC11453
:1007F000D10409F4D1C0812C912C8D8190E0982FE7
:1008000088272E81822B8816990608F46FC0812CC8
:10081000912C41E050E0BE016D5E7F4FC8010E9407
:100820002F128B89982F907C09F093C0811186C07C
:100830008B898111EECF42E050E0BE01615F7F4FB6
:10084000C8010E942F1242E050E0BE01635F7F4F5B
:10085000C8010E942F12C8010E944E12C8010E94B6
:100860004E12C8010E944E12C8010E944E1242E070
:1008700050E0BE016F5E7F4FC8010E942F128F852E
:1008800098898115914009F069C02D853E853227F0
:10089000232732272130310509F060C089899A89E0
:1008A0008115944009F075C044E050E0B301C801DF
:1008B0002C8B3D8B0E942F122C893D896901F1E020
:1008C000AF1AB10829F02FEFC216D20609F428CFCB
:1008D000C8010E94A213C60165C08EEF9FEF62C0DF
:1008E0002CEF3FEFEBCF2DEF3FEFE8CF41E050E0B3
:1008F000BE01635F7F4FC8010E942F128D85811159
:1009000013C08D858111F2CFC8010E944E12C8011B
:100910000E944E12C8010E944E12C8010E944E123F
:10092000FFEF8F1A9F0A69CF8D859FEF980F9D87E4
:10093000882339F3C8010E944E12F6CF8B899FEFAE
:10094000980F9B8B882309F473CFC8010E944E1225
:10095000F5CFC8010E944E121B8A6ACF412C512C40
:1009600089899A899827892798274816590638F43B
:10097000C8010E944E128FEF481A580AF1CFEFEFCC
:100980008E1A9E0A8C149D0409F043CF26EF3FEF88
:1009900095CF27EF3FEF92CF2AEF3FEF8FCF2BEF8F
:1009A0003FEF8CCF65960FB6F894DEBF0FBECDBF7C
:1009B000DF91CF911F910F91FF90EF90DF90CF903B
:1009C000BF90AF909F908F907F906F905F904F906F
:1009D0003F902F9008952F923F924F925F926F9287
:1009E0007F928F929F92AF92BF92CF92DF92EF92BF
:1009F000FF920F931F93CF93DF93CDB7DEB7E397AB
:100A00000FB6F894DEBF0FBECDBF7C011A012B01DB
:100A100039010E94CE0A4B015C0187010D5B1F4F1B
:100A2000C8010E949E1218161906A4F00E94CE0A50
:100A3000DC01CB0188199909AA09BB0928163906D6
:100A40004A065B06D8F062E370E080E090E00E9426
:100A5000940AE6CF42E250E0BE016F5F7F4FC801CB
:100A60000E942F128981823011F080E061C1F8016B
:100A70008489958983349105C1F702C08FEF58C1ED
:100A80006D817E818F8198850E94D91F4B015C0109
:100A9000F301608371838283938346E050E0B70162
:100AA000685F7F4FCE014D960E94F621892BE9F6B3
:100AB000F70180819181A281B38188169906AA06E7
:100AC000BB0698F284819581A681B7818815990526
:100AD000AA05BB0550F289899A89AB89BC898687AA
:100AE0009787A08BB18B8EECA82EB12CC8010E94E9
:100AF0004E12F1E0AF1AB108C9F719A6670182E2F8
:100B0000C80ED11CF701B696FBA7EAA7C7018A96C3
:100B10009DA78CA73C974F0189969FA78EA73897D2
:100B2000F9ABE8AB1701F6E12F0E311CC5979BAB73
:100B30008AABF801818D928D181619060CF0F7C05A
:100B4000C8010E944E128333910509F4CBC0FCF416
:100B500081309105C9F11CF4892B59F3DCC0833035
:100B60009105D1F1069709F0D6C0C8010E944E1236
:100B70005C0144E050E06AA97BA9C8010E942F12E1
:100B8000412C512CBB24F4E0AF1AB10840C08A3389
:100B9000910509F47BC03CF48533910569F0C69753
:100BA00009F440C0B8C08B33910509F485C08F3F6C
:100BB000910509F4BECFAFC0C8010E944E12C80112
:100BC0000E944E1289A7B5CFC8010E944E1244E080
:100BD00050E068A979A93AC0C8010E944E125C0190
:100BE00044E050E0B101C8010E942F12412C512C69
:100BF000BB2494E0A91AB1084A145B040CF099CF05
:100C0000C8010E944E12EFEF4E1A5E0AF5CF4A1449
:100C10005B040CF08ECFC8010E944E128FEF481A71
:100C2000580AF5CFC8010E944E12B82EF701828DE6
:100C3000811110C0838D81110DC0848D81110AC076
:100C4000858D811107C044E050E0B401C8010E94C5
:100C50002F126FCFEEA5FFA5408051806280738078
:100C6000B401CE0183960E94A4098DA19EA1AFA1DB
:100C7000B8A584159505A605B70529F3BB2009F489
:100C800058CFC8010E944E12BA94F8CFC8010E94F2
:100C90004E1244E050E06AA57BA5C8010E942F12C5
:100CA000F70166A177A180A591A50E94D91F66A32F
:100CB00077A380A791A73DCFC8010E944E1244E0C0
:100CC00050E06CA57DA5C8010E942F12F70162A516
:100CD00073A584A595A50E94D91F62A773A784A7B1
:100CE00095A727CFC8010E944E1244E050E0B601FC
:100CF000C8010E942F12F70162A173A184A195A1DE
:100D00000E94D91F62A373A384A395A366A777A7A4
:100D100080AB91AB0ECFC8010E944E12B82EBB2003
:100D200009F407CFC8010E944E12BA94F8CF89A5E2
:100D3000E3960FB6F894DEBF0FBECDBFDF91CF9123
:100D40001F910F91FF90EF90DF90CF90BF90AF90E9
:100D50009F908F907F906F905F904F903F902F90DB
:100D600008957F928F929F92AF92BF92CF92DF921F
:100D7000EF92FF920F931F93CF93DF93CDB7DEB720
:100D8000A6970FB6F894DEBF0FBECDBF8C01762EAE
:100D9000942E852E20E2B22ECE0101967C01FC011C
:100DA0002B2D11922A95E9F785EC91E09AA389A35E
:100DB0008FEF8BA38CA38DA38EA3680183E4C80E51
:100DC000D11C43E450E0BE016F5D7F4FC6010E941D
:100DD000D414019609F4BFC081E089838A8386E038
:100DE000A82EAB821C82F80164817581868197816F
:100DF0000E94D91F6D837E838F83988789869A8608
:100E000080E890E09C878B874CE150E0B701C601F9
:100E10000E94F712F7012B2D11922A95E9F748014C
:100E200088E0880E911CF401D70101900D92AA94DC
:100E3000E1F740E150E0B701C6010E94F712F70167
:100E40001192BA94E9F796E0A92EB12C40E250E055
:100E5000B701C6010E94F712F1E0AF1AB108B1F76D
:100E600083E6898392E89A8393E59B838C8385E369
:100E70008D8381E08E837F829DE3988797E09987B9
:100E80008A8786E0F401DE011B9601900D928A9517
:100E9000E1F78CE0898B8A8B69E472E0CE0143969E
:100EA0000E940C22F8014385BE01675E7F4FC80196
:100EB0000E948D00F8014485BE01655E7F4FC80128
:100EC0000E948D00F8014585BE01635E7F4FC80119
:100ED0000E948D004EE150E0B701C6010E94F7125A
:100EE000F3E07F121EC082E3898384E08A83F801E5
:100EF00096859B8397859C8390899D8391899E830A
:100F000096E39F838887828D8987838D8A87848DE6
:100F10008B87858D8C874CE050E0B701C6010E941D
:100F2000F71287E3898386E08A8391E09B8393E0CD
:100F30009C838D838FE08E838AE38F838BE3888706
:100F40008FEF898749E050E0B701C6010E94F71290
:100F5000C6010E941414A6960FB6F894DEBF0FBE09
:100F6000CDBFDF91CF911F910F91FF90EF90DF9058
:100F7000CF90BF90AF909F908F907F9008951F92D9
:100F80000F920FB60F9211242F933F934F935F93BD
:100F90006F937F938F939F93AF93BF93EF93FF9341
:100FA000E091EC02F091ED02309709F451C0968D7A
:100FB000A685B785858591FF04C09C91892329F476
:100FC00047C09C91892309F043C0A389B4899C91AF
:100FD0008589809589238C93868997890197F1F774
:100FE000608D718DA685B785558538E020E0CB01F1
:100FF0000197F1F7822F90E095958795282F4C91D6
:10100000452309F02068315091F7868D81FD2095A8
:101010008091EB0290E001968F7399273091EA025C
:10102000381749F0A091EB02B0E0A655BD4F2C93C4
:101030008093EB0203C0868D8160868F828D938DB5
:101040000197F1F7A389B4899C918589892B8C93A9
:10105000FF91EF91BF91AF919F918F917F916F9190
:101060005F914F913F912F910F900FBE0F901F9066
:101070001895E091EC02F091ED02E817F90769F498
:10108000A389B4899C918589809589238C9310923A
:10109000ED021092EC0281E0089580E00895FC01D9
:1010A000918D828D981761F0828DDF01A80FB11D9F
:1010B0005D968C91928D9F5F9F73928F90E00895C3
:1010C0008FEF9FEF0895FC01918D828D981731F07D
:1010D000828DE80FF11D858D90E008958FEF9FEFD1
:1010E0000895FC01918D228D892F90E0805C9F4FA7
:1010F000821B91098F739927089580E793E00E94DE
:10110000710821E0892B09F420E0822F0895FC0169
:10111000848DDF01A80FB11DA35ABF4F2C91848D80
:1011200090E001968F739927848FA689B7892C93B5
:10113000A089B1898C9180648C93938D848D981350
:1011400006C00288F389E02D80818F7D8083089519
:10115000EF92FF920F931F93CF93DF93EC0181E007
:10116000888F9B8D8C8D981305C0E889F9898081C3
:1011700085FD24C0F62E0B8D10E00F5F1F4F0F73FF
:101180001127E02E8C8DE8120CC00FB607FCFACFA9
:10119000E889F989808185FFF5CFCE010E94870813
:1011A000F1CF8B8DFE01E80FF11DE35AFF4FF08266
:1011B0000B8FEA89FB898081806207C0EE89FF89F5
:1011C0006083E889F98980818064808381E090E090
:1011D000DF91CF911F910F91FF90EF900895CF93E2
:1011E000DF93EC01888D8823C9F0EA89FB8980812F
:1011F00085FD05C0A889B9898C9186FD0FC00FB601
:1012000007FCF5CF808185FFF2CFA889B9898C9141
:1012100085FFEDCFCE010E948708E7CFDF91CF9108
:10122000089580E090E0892B29F00E947D088111CB
:101230000C94000008953FB7F89480915C0390915E
:101240005D03A0915E03B0915F0326B5A89B05C026
:101250002F3F19F00196A11DB11D3FBFBA2FA92F35
:10126000982F8827820F911DA11DB11DBC01CD01B2
:1012700042E0660F771F881F991F4A95D1F708959E
:101280008F929F92AF92BF92CF92DF92EF92FF9296
:101290000F931F93CF93DF937C01EB016C0182E0EE
:1012A000C80ED11C4701E5E08E0E911C00E010E055
:1012B000F60141916F0150E060E070E02AE0CE015C
:1012C0000E9435115C01E881F9810190F081E02DE7
:1012D0006EE2CE0109958A0D9B1D080F191FC814D7
:1012E000D90431F7F701458150E060E070E02AE071
:1012F000CE010E943511800F911FDF91CF911F9178
:101300000F91FF90EF90DF90CF90BF90AF909F90A4
:101310008F9008950E94F1211F93CF93DF93182F90
:1013200066E270E00E94EE13C82FD0E067E270E042
:10133000812F0E94EE13DC2FCC279E01282BC901A0
:10134000DF91CF911F91089525EC31E0FC013183AD
:101350002083FB014081518162817381FC014283C2
:1013600053836483758308951F920F920FB60F9273
:1013700011242F933F934F935F936F937F938F939A
:101380009F93AF93BF93EF93FF9380E793E00E9407
:101390008708FF91EF91BF91AF919F918F917F91BE
:1013A0006F915F914F913F912F910F900FBE0F90D2
:1013B0001F9018951F920F920FB60F9211242F9322
:1013C0008F939F93EF93FF93E0918003F0918103BC
:1013D0008081E0918603F091870382FD12C09081A5
:1013E000809189038F5F8F7320918A03821751F058
:1013F000E0918903F0E0E059FC4F958F80938903D9
:1014000001C08081FF91EF919F918F912F910F905B
:101410000FBE0F901F90189590E0FC01EE58FF4F03
:101420003491FC01E255FF4F2491FC01E656FF4F39
:10143000E491EE2309F43BC0332339F1333091F0CA
:1014400038F43130A9F0323001F584B58F7D12C007
:10145000373091F03830A1F03430B9F48091800009
:101460008F7D03C0809180008F77809380000DC0B6
:1014700084B58F7784BD09C08091B0008F7703C099
:101480008091B0008F7D8093B000F0E0EE0FFF1FE1
:10149000EA57FF4FA591B4918FB7F894EC91611181
:1014A00003C020952E2301C02E2B2C938FBF0895AF
:1014B000CF93DF9390E0FC01E255FF4F2491FC01B4
:1014C000E656FF4F8491882361F190E0880F991FC1
:1014D000FC01E859FF4FC591D491FC01EA57FF4F39
:1014E000A591B491611109C09FB7F89488812095A6
:1014F00082238883EC912E230BC0623061F49FB766
:10150000F8943881822F809583238883EC912E2B49
:101510002C939FBF06C08FB7F894E8812E2B2883A9
:101520008FBFDF91CF9108958F929F92AF92BF921C
:10153000CF92DF92EF92FF926B017C010E941B0918
:101540004B015C01C114D104E104F104F1F00E94EB
:101550001B09DC01CB0188199909AA09BB09883E3E
:101560009340A105B10570F321E0C21AD108E1084A
:10157000F10888EE880E83E0981EA11CB11CC114EE
:10158000D104E104F10419F7DDCFFF90EF90DF9073
:10159000CF90BF90AF909F908F9008952FB7F89401
:1015A000609158037091590380915A0390915B03A5
:1015B0002FBF08951F920F920FB60F9211242F93F1
:1015C0003F938F939F93AF93BF93809158039091D4
:1015D0005903A0915A03B0915B033091570323E064
:1015E000230F2D3720F40196A11DB11D05C026E85B
:1015F000230F0296A11DB11D20935703809358031A
:1016000090935903A0935A03B0935B0380915C03BA
:1016100090915D03A0915E03B0915F030196A11DBF
:10162000B11D80935C0390935D03A0935E03B09320
:101630005F03BF91AF919F918F913F912F910F9039
:101640000FBE0F901F9018952A9A08952A98089512
:101650001F93CF93DF93182F60E270E00E94EE1388
:10166000C82FD0E061E270E0812F0E94EE13DC2FE2
:10167000CC279E01282BC901DF91CF911F9108959E
:101680008EBD00000DB407FEFDCF8EB50895CF923C
:10169000DF92EF92FF920F931F93CF93DF93EC01B2
:1016A0007A018B016C01C40ED51ECC15DD05A9F0A5
:1016B0000E94260B8FE00E94400B8D2F0E94400B52
:1016C0008C2F0E94400B219680E00E94400BF80175
:1016D00081938F010E94240BE8CFC701DF91CF9146
:1016E0001F910F91FF90EF90DF90CF900895CF92D0
:1016F000DF92EF92FF920F931F93CF93DF93EC0152
:101700007A018B016C01C40ED51ECC15DD05A1F04C
:101710000E94260B80EF0E94400B8D2F0E94400BF1
:101720008C2F0E94400B2196F80181918F010E941D
:10173000400B0E94240BE9CFC701DF91CF911F918D
:101740000F91FF90EF90DF90CF9008951F93CF936C
:10175000DF9300D0CDB7DEB7182F6A8399830E943C
:10176000260B80EF0E94400B9981892F0E94400B2D
:10177000812F0E94400B6A81862F0E94400B0E949D
:10178000240B81E00F900F90DF91CF911F9108956E
:101790001F93CF93DF9300D0CDB7DEB7182F80E52E
:1017A00090E069837A830E94211621E041E050E0B5
:1017B00069817A81812F0E94F20F0E94201681E0B8
:1017C00090E00F900F90DF91CF911F910895FF92BD
:1017D0000F931F93CF93DF93F82E80E590E00E9444
:1017E0002116C0E0D0E08F2D0E948C098C01892B3E
:1017F00021F08F2D0E948C09EC01C017D10799F7B9
:101800000E942016CE01DF91CF911F910F91FF9082
:101810000895AF92BF92CF92DF92EF92FF921F9303
:10182000CF93DF93182F5B017A0180E590E00E944F
:101830002116C0E0D0E0812F0E948C096C01892B19
:1018400021F0812F0E948C09EC01CC15DD0599F760
:10185000209799F463E070E0812F0E94EE138431A9
:10186000F1F08823E1F0C1E0D0E08C3111F4C0E068
:10187000D0E0D195C195D10912C0EC16FD060CF44B
:10188000E7011C161D065CF420E0AE01B501812FB6
:101890000E94F20F60E470E0812F0E94E20F0E942C
:1018A0002016CE01DF91CF911F91FF90EF90DF9036
:1018B000CF90BF90AF900895CF93C82F80E590E070
:1018C0000E94211660E170E08C2F0E94E20F4FEF22
:1018D00062E070E08C2F0E94E413CF910C942016EC
:1018E000FF920F931F93CF93DF9300D0CDB7DEB756
:1018F000F82E8A012A8369830E945C0C80E590E0BF
:101900000E9421162A816981462F422B60E070E0F7
:101910008F2D0E94E4130115110551F40091550318
:10192000109156030F5F1F4F1093560300935503FA
:10193000412F64E070E08F2D0E94E413402F65E09A
:1019400070E08F2D0E94E41361E070E08F2D0E9403
:10195000E20F0E94201681E00F900F90DF91CF914F
:101960001F910F91FF9008951F93CF93DF931F92C4
:10197000CDB7DEB7182F80E590E00E94211663E016
:1019800070E0812F0E94EE1389830E9420168981C6
:101990000F90DF91CF911F910895CF92DF92EF9238
:1019A000FF920F931F93CF93DF936C017A018B010A
:1019B000C0E0D0E0CE15DF0589F0D8016D918D0132
:1019C000D601ED91FC910190F081E02DC6010995C1
:1019D000892B11F47E0102C02196ECCFC701DF9163
:1019E000CF911F910F91FF90EF90DF90CF900895CE
:1019F000CF92DF92EF92FF92CF93DF93EC010E94A0
:101A0000CE0A6B017C0180911B0490911C04DC01C7
:101A1000ED91FC910480F581E02D0995892B79F4F5
:101A20000E94CE0AAB01BC014C195D096E097F0909
:101A300048395A436105710530F380E00DC080914B
:101A40001B0490911C04DC01ED91FC910680F78150
:101A5000E02D0995888381E0DF91CF91FF90EF9091
:101A6000DF90CF90089580911B0490911C04009703
:101A700059F1DC01ED91FC910488F589E02D09957F
:101A8000811124C08091B6049091B704892BE1F4B0
:101A90008DEF9FEF9093B7048093B60480911B0461
:101AA00090911C04DC01ED91FC910284F385E02D02
:101AB000099580911B0490911C04DC01ED91FC912F
:101AC0000288F389E02D099580E0089581E008956A
:101AD000CF93DF93BC0180E793E00E942817EC01CD
:101AE0006BEE71E080E793E00E9428178C0F9D1F3A
:101AF000DF91CF910895BC0180E793E00C94281703
:101B0000CF93DF93DC014E5F5F4FFC019F012A1BE7
:101B10003B0B9191992339F0EB01C40FD51F9883AA
:101B20004F5F5F4FF3CFCA01821B930B680F791F82
:101B3000FB013297308331962083CA01DF91CF9128
:101B40000895CF92DF92EF92FF920F931F93CF935E
:101B5000DF9300D000D0CDB7DEB79A01E0E0922F3E
:101B60009F77220F232F221F330B3195211531052B
:101B700009F0906801E00E0FA1E0B0E0AC0FBD1FCE
:101B8000AE0FB11DFD0190832115310511F0E02F3D
:101B9000E6CF10E0DB01A01BB10B14968C93FE0185
:101BA00031966F0180E090E08017910764F4F601B0
:101BB000F1906F019C01201B310B260F371FF9019B
:101BC000F5820196F1CF80911B0490911C044F5F28
:101BD0005F4F040F151FFC0120813181F901228123
:101BE0003381A801BD01F90109957C010E94CE0A4B
:101BF00060939F047093A0048093A1049093A20427
:101C000081E0E016F10609F080E00F900F900F9050
:101C10000F90DF91CF911F910F91FF90EF90DF9088
:101C2000CF9008955F926F927F928F929F92AF9222
:101C3000BF92CF92DF92EF92FF920F931F93CF93B9
:101C4000DF931F92CDB7DEB74C018DE194E00E9487
:101C5000F80C811126C022C00F5F1F4F8981F80147
:101C6000E55EFB4F8183282F2F7730E02C9DA0016C
:101C70002D9D500D3C9D500D1124A40EB51E37E036
:101C8000CC0CDD1CEE1CFF1C3A95D1F787FF15C06C
:101C9000CE0101960E94F80C8111DECF80E090E029
:101CA00088C070901D04198201E010E0A12CB12CB5
:101CB000C12CD12C7601C394EBCF872D807F552486
:101CC0005394803309F0512C8FEF800FD4018C9303
:101CD000552021F1C801835E9B4F0E94F80C882398
:101CE000E9F2C801825E9B4F0E94F80C8823B1F292
:101CF0000E5F1F4FD401EC91F0E0E55EFB4FE380F7
:101D0000F12CFE2CEE248481E80EF11C80911D0440
:101D100081FF08C0B2E0EB0EF11C04C080E0E12CB2
:101D2000F12C01C082E0C82ED12CC01AD10A9EEF3E
:101D3000692E77247A94C601800F911F8A159B051E
:101D400068F5CE0101960E94F80C882309F4A6CF0D
:101D50008091B4049091B5040097A9F0552099F0B2
:101D6000F4012081A301421B51099A01200F311F68
:101D7000E216F30640F4DC01ED91FC910190F08154
:101D8000E02D698109950038110528F48981F80151
:101D9000E55EFB4F82830F5F1F4FCDCF8091B40470
:101DA0009091B504892B21F40138110508F076CF04
:101DB000C8010F90DF91CF911F910F91FF90EF908D
:101DC000DF90CF90BF90AF909F908F907F906F905B
:101DD0005F9008958F929F92AF92BF92EF92FF9281
:101DE0001F93CF93DF93CDB7DEB728970FB6F89444
:101DF000DEBF0FBECDBF0E94330D182F8111D1C0A1
:101E00006091B0047091B104A0911B04B0911C04C6
:101E10004091B2045091B304ED91FC91119761157A
:101E2000710521F00684F785E02D16C00484F58540
:101E3000E02D85EC91E09A8389838090AC049090AA
:101E4000AD04A090AE04B090AF048B829C82AD82B2
:101E5000BE82BE016F5F7F4FCD0109958130910534
:101E600009F099C090939E0480939D0487E0EEE56D
:101E7000F1E0DE01119601900D928A95E1F7FE01E5
:101E80003196A2E2B4E07E0128E0E20EF11C8191DD
:101E90008D93EE15FF05D9F782E080932904109207
:101EA0002A048FE080932B044FE050E06DE174E052
:101EB0008BE992E00E94800DAC01455051096DE123
:101EC00074E080E10E94A10D0E94CE0A60939F04FD
:101ED0007093A0048093A1049093A2046093A30440
:101EE0007093A4048093A5049093A60480911B048E
:101EF00090911C04DC01ED91FC910480F581E02DB2
:101F00000995892BE1F40E94CE0A8090A304909059
:101F1000A404A090A504B090A604DC01CB0188190C
:101F20009909AA09BB0988399A43A105B105F0F2BC
:101F30008CEF9FEF9093B7048093B60420C0C70145
:101F40000E94120E0497D9F420912004211112C08E
:101F50000E94CE0A6093A3047093A4048093A50406
:101F60009093A6041092A7041092B7041092B6049E
:101F700011E017C030E03093B7042093B60480918D
:101F80001B0490911C04DC01ED91FC910288F38903
:101F9000E02D099506C08EEF9FEF9093B7048093D4
:101FA000B604812F28960FB6F894DEBF0FBECDBFC2
:101FB000DF91CF911F91FF90EF90BF90AF909F90D6
:101FC0008F900895CF93C82F462F61E070E00E9454
:101FD000E41361E070E08C2F0E94EE138111F9CFC1
:101FE000CF9108958F929F92AF92BF92CF92DF923E
:101FF000EF92FF920F931F93CF93DF93B82E4B0175
:102000008A01A22E68E270E00E94EE13C82FD0E091
:1020100069E270E08B2D0E94EE13DC2FCC27C82BD9
:102020009E013770CB2CD12CC601880F991FAC01B3
:1020300048595C4F6A01FA0180819181820F931F98
:10204000A801420F531F4130584098F060E078E0FB
:102050007B01E21AF30AA701B4010E94470BA80111
:102060004E195F09B4016E0D7F1DF60180819181CB
:1020700002C0A801B4010E94470BA1100EC0C00FFE
:10208000D11F4D2F68E270E08B2D0E94E4134C2F7E
:1020900069E270E08B2D0E94E413DF91CF911F91D4
:1020A0000F91FF90EF90DF90CF90BF90AF909F90F7
:1020B0008F9008959F92AF92BF92CF92DF92EF924E
:1020C000FF920F931F93CF93DF93982E8B015A01AA
:1020D000690164E270E00E94EE13E82EF12C65E2E3
:1020E00070E0892D0E94EE13FE2CEE24E82AE70111
:1020F000C00FD11F9E013770E92CF12CC701880F4A
:10210000991FAC01405A5C4F7A01FA01808191819C
:10211000820F931FA9014C0D5D1D4130584090F076
:1021200000E018E0021B130BA801B5010E94770B19
:10213000A601401B510BB501600F711FF701808193
:10214000918102C0A601B5010E94770BCC0DDD1D67
:102150004D2F64E270E0892D0E94E4134C2F65E25C
:1021600070E0892DDF91CF911F910F91FF90EF903B
:10217000DF90CF90BF90AF909F900C94E413FF92AC
:102180000F931F93CF93DF93F82EC0E0D0E08F2DF5
:102190000E94280B8C01892B21F08F2D0E94280B87
:1021A000EC01C017D10799F7CE01DF91CF911F91B4
:1021B0000F91FF900895FC0182819381A481B581E4
:1021C0008093AC049093AD04A093AE04B093AF049D
:1021D0008BE69EE29093B3048093B2041092B10414
:1021E0001092B0048BE194E00895EF92FF920F9368
:1021F0001F93CF93DF93EC017B018A018881998142
:10220000009729F02A813B8124173507F8F4B8019B
:102210006F5F7F4F0E942721009759F09983888331
:102220001B830A832C813D81232B81F4FC011082C6
:102230000DC088819981009711F00E948F2019822A
:1022400018821D821C821B821A8207C01D830C8388
:10225000B701888199810E940C22CE01DF91CF9134
:102260001F910F91FF90EF9008954F925F926F92A0
:102270007F92EF92FF920F931F93CF93DF93CDB78F
:10228000DEB7A1970FB6F894DEBF0FBECDBF7C01BD
:10229000FA01CB0119A2223008F42AE08E010F5D69
:1022A0001F4F422E512C612C712CBF01A3019201B2
:1022B0000E94941FF901CA01015011096A3014F4F7
:1022C000605D01C0695CD8016C93232B242B252B06
:1022D00061F7B801C7010E942817A1960FB6F894BC
:1022E000DEBF0FBECDBFDF91CF911F910F91FF9049
:1022F000EF907F906F905F904F900895CF92DF9214
:10230000EF92FF920F931F93CF93DF93EC016A013B
:102310007B01E881F9810190F081E02D6DE2099562
:102320008C0144275527BA014C195D096E097F09B4
:102330002AE0CE010E943511800F911FDF91CF91CD
:102340001F910F91FF90EF90DF90CF900895089527
:10235000CF93DF931F92CDB7DEB76983DC01ED9198
:10236000FC910280F381E02D41E050E0BE016F5FFF
:102370007F4F09950F90DF91CF910895FC01818DDA
:10238000928D0895FC0184899589089525EC31E0AA
:10239000FC0131832083FB01408951896289738963
:1023A000FC0142835383648375830895DC01ED91BE
:1023B000FC91028CF38DE02D099480E00895FC01DE
:1023C0009485FB018485981303C081E0943009F45F
:1023D00080E0089521E0FC018485843009F420E048
:1023E000822F08950895CF93DF931F92CDB7DEB764
:1023F000FC01218D328D232B49F0BE016F5F7F4F91
:10240000808D0E94C80B898190E002C08FEF9FEF02
:102410000F90DF91CF9108950F931F93CF93DF9388
:102420001F92CDB7DEB78C01DC01ED91FC910480E9
:10243000F581E02D0995892B51F0BE016F5F7F4F2B
:10244000F80184850E94C80B898190E002C08FEF5B
:102450009FEF0F90DF91CF911F910F910895CF9330
:10246000DF93FC01218D328D2115310519F48FEF99
:102470009FEF11C0EC014217530708F0A901888DA6
:102480000E94090C1816190694F7298D3A8D281BFD
:10249000390B3A8F298FDF91CF9108950F931F93B6
:1024A000CF93DF931F92CDB7DEB7FC01218D328D24
:1024B000232B61F08C0141E050E0BE016F5F7F4F44
:1024C000808D0E94090C181619061CF08FEF9FEFE3
:1024D00008C0F801818D928D0197928F818F89813B
:1024E00090E00F90DF91CF911F910F910895FC0123
:1024F00084850C94090CCF93DF931F92CDB7DEB780
:1025000041E050E0BE016F5F7F4FFC0184850E9477
:10251000090C181619061CF4898190E002C08FEF8F
:102520009FEF0F90DF91CF910895FC018485843057
:1025300011F00C94E70B80E090E008950F931F9347
:10254000CF93DF93CDB7DEB728970FB6F894DEBFF1
:102550000FBECDBF8C01F801818D928D892B49F082
:10256000D801ED91FC910680F781E02DC801099515
:10257000F2CF808D0E94E70B181619065CF548E033
:1025800050E0BE016F5F7F4FD80158968C910E943A
:10259000090C9C0118161906DCF489819A81AB811B
:1025A000BC81F801808B918BA28BB38B8D8190E0E5
:1025B000982F88272E81820F911D958B848B2F81D8
:1025C00030E0322F22278885280F311D328F218F4E
:1025D000C90102C080E090E028960FB6F894DEBFF3
:1025E0000FBECDBFDF91CF911F910F910895AF9294
:1025F000BF92CF92DF92FF920F931F93CF93DF93FF
:102600008C015B01EA01FC01C688D788F08C80E56B
:1026100090E00E9421168F2D0E94BF108C179D07FD
:1026200020F48F2D0E94BF10EC019E01A501B60180
:102630008F2D0E945A100E942016F80186899789D2
:102640008C0F9D1F978B868BCE01DF91CF911F91B1
:102650000F91FF90DF90CF90BF90AF900895CF92F1
:10266000DF92EF92FF920F931F93CF93DF93CDB73B
:10267000DEB7AF970FB6F894DEBF0FBECDBF7C01BB
:102680006A0105EC11E01A8309831C861B8688EE1B
:1026900093E0A0E0B0E08D879E87AF87B88B8CE396
:1026A00091E09A878987188F0F8B198E1A8E1B8E4F
:1026B0001C8E84E089A31DA30CA31EA21FA218A632
:1026C00019A680910F0490911004A0911104B0916B
:1026D00012048CA79DA7AEA7BFA78B839C83AD8355
:1026E000BE8318861F82AE014C5D5F4FCE010196FE
:1026F0000E94700281309105B1F4D701ED91FC91F7
:102700000288F389E02D1BA70AA78EA19FA1A8A587
:10271000B9A58CA79DA7AEA7BFA7A601BE01665D00
:102720007F4FC7010995AF960FB6F894DEBF0FBE75
:10273000CDBFDF91CF911F910F91FF90EF90DF9070
:10274000CF900895CF93DF93EC01888D843061F0B2
:102750000E945C0CE88DF0E0EE0FFF1FE65EFA4F82
:102760001182108284E0888FDF91CF910895EF92DB
:10277000FF921F93CF93DF93FC01208D243011F043
:1027800080E01CC07B01EC0110E0812F0E94B40CA2
:10279000811102C0188F05C08831E1F31F5F14302A
:1027A000A1F7888D843061F3FD86EC861A8E198E30
:1027B00020E0A70162E00E94700C81E0DF91CF91E0
:1027C0001F91FF90EF9008959B0190E00496982F41
:1027D0008827642F820F931F0C94A60B0F931F93CF
:1027E000CF93DF931F92CDB7DEB790E00496982F7A
:1027F00088278C01060F171F0E94260B8FE00E946E
:10280000400B812F0E94400B802F0E94400B80E0E4
:102810000E94400B89830E94240B89810F90DF91D5
:10282000CF911F910F910895CF93FC01C08D80E54A
:1028300090E00E94211660E270E08C2F0E94E20F6F
:1028400062E070E08C2F0E94EE1384FD19C062E0FC
:1028500070E08C2F0E94EE1383FF0BC048E162E012
:1028600070E08C2F0E94E4130E94201680E090E01C
:1028700011C00E94201680E590E00E942116E0CF52
:1028800040E162E070E08C2F0E94E4130E94201669
:1028900081E090E0CF910895CF93DF93C82FD62F9A
:1028A000472F60E170E00E94E4134D2F61E170E07A
:1028B0008C2FDF91CF910C94E413BF92CF92DF92D3
:1028C000EF92FF920F931F93CF93DF9300D000D02E
:1028D00000D0CDB7DEB7FC01208D243009F053C005
:1028E0006A017B018C01B12C63E070E08B2D0E94AA
:1028F000EE13811103C0F801B08E06C08831D9F300
:10290000B394F4E0BF12F0CFF801808D8430D9F198
:1029100096E0EDECF1E0DE01119601900D929A95B2
:10292000E1F7F70193819F779C8394819D83958143
:102930009E83B7016E5F7F4F90E0982F882744E019
:1029400050E0845F9B4F0E94770BB601F801808DA9
:102950000E944C14F801808D90E0982F882746E063
:1029600050E0BE016F5F7F4F8A5F9B4F0E94770BE5
:10297000F801128E118E20E8A60162E0808D0E947F
:10298000700C81E001C080E026960FB6F894DEBF9F
:102990000FBECDBFDF91CF911F910F91FF90EF90B0
:1029A000DF90CF90BF900895FF920F931F93CF9326
:1029B000DF93FB01DC0157961C921E9256975896A6
:1029C000FC908281811109C08381811106C08481BC
:1029D000811103C085818823F9F041155105E1F08B
:1029E0008A01EF0180E590E00E942116BE016E5F32
:1029F0007F4F2F2D30E0922F882744E050E0845FF6
:102A00009B4F0E94770BB8018F2D0E944C140E949F
:102A1000201681E090E002C080E090E0DF91CF914D
:102A20001F910F91FF900895FC018485843011F06F
:102A30000C94B40C80E00895CF93DF93FC012485BF
:102A40002430D1F0EC010E941415843181F08823E8
:102A500071F0883161F08C3161F4E881F981048092
:102A6000F581E02DCE01099521E0892B19F420E0B4
:102A700001C021E0822F01C080E0DF91CF91089555
:102A8000CF92DF92EF92FF921F93CF93DF93FC01DF
:102A900014851430A9F1EC0180E590E00E94211624
:102AA00068E070E0812F0E94E20F0E9420160E94D1
:102AB000CE0A6B017C01CE010E9414158823B1F06F
:102AC00061E070E080E090E00E94940A0E94CE0AEB
:102AD000DC01CB018C199D09AE09BF09883E9340EA
:102AE000A105B10540F38C850E945C0CEC85F0E0FB
:102AF000EE0FFF1FE65EFA4F1182108284E08C8792
:102B0000DF91CF911F91FF90EF90DF90CF900895CC
:102B1000CF93DF931F92CDB7DEB76983DC01ED91D0
:102B2000FC910280F381E02D41E050E0BE016F5F37
:102B30007F4F09950F90DF91CF910895DC01ED91C2
:102B4000FC91048CF58DE02D099591E0892708957D
:102B5000862F089581E086270895CF92DF92EF9225
:102B6000FF920F931F93CF93DF93CDB7DEB7AF974D
:102B70000FB6F894DEBF0FBECDBF7C016A0105EC35
:102B800011E01A8309831C861B8688EE93E0A0E07F
:102B9000B0E08D879E87AF87B88B8CE391E09A87F2
:102BA0008987188F0F8B198E1A8E1B8E1C8E84E0CE
:102BB00089A31DA30CA31EA21FA218A619A680916B
:102BC0000F0490911004A0911104B09112048CA7ED
:102BD0009DA7AEA7BFA78B839C83AD83BE831886BA
:102BE0001F82AE014C5D5F4FCE0101960E947002C4
:102BF00081309105B1F4D701ED91FC910484F58504
:102C0000E02D1BA70AA78EA19FA1A8A5B9A58CA7F7
:102C10009DA7AEA7BFA7A601BE01665D7F4FC701F6
:102C20000995AF960FB6F894DEBF0FBECDBFDF910A
:102C3000CF911F910F91FF90EF90DF90CF9008956B
:102C400008958CBD9DBD08958F929F92AF92BF92C3
:102C5000CF92DF92EF92FF920F931F93CF936C016D
:102C60005B017A01FC01C485C43041F481E090E04D
:102C7000F6019383828380E090E04EC08A01413068
:102C8000584010F000E018E080E590E00E94211626
:102C90008C2F0E94BF104C0163E070E08C2F0E94CB
:102CA000EE13873111F08C3121F48016910660F318
:102CB00002C000E010E080E590E00E94211698013B
:102CC000A50160E070E08C2F0E945A1060E270E075
:102CD0008C2F0E94E20F62E070E08C2F0E94EE13B6
:102CE00084FD10C063E070E08C2F0E94EE13811110
:102CF00004C08C2F0E945C0CB9CF80E590E00E944C
:102D00002116E9CF40E162E070E08C2F0E94E413CD
:102D1000012B09F4ABCFC701CF911F910F91FF9009
:102D2000EF90DF90CF90BF90AF909F908F900895DD
:102D3000CF92DF92FF920F931F93CF93DF93FC010B
:102D40002485243009F077C06A01EB018C01F12C55
:102D50008F2D0E94B40C811103C0F801F48607C0C6
:102D60008B7F8831D1F3F394F4E0FF12F1CFF801B7
:102D70008485843009F45FC02091060130910701F9
:102D80002F5F3F4F11F420E030EC30930701209388
:102D90000601409106015091070120E061E00E9488
:102DA000700CF801F4848A818F3F51F48B818F3F3E
:102DB00091F48C818F3F79F48D818F3F61F438C01D
:102DC000811109C08B81811106C08C81811103C0E2
:102DD0008D81882369F1C114D10451F180E590E01F
:102DE0000E942116BE016E5F7F4F8F2D90E0982FBD
:102DF000882744E050E0845F9B4F0E94770BB60128
:102E00008F2D0E944C1464E070E08F2D0E94E20F21
:102E1000C8010E941415873189F061E070E080E0FC
:102E200090E00E94940AC8010E9414158111F0CF0D
:102E300084E0F801848780E090E002C081E090E0C7
:102E4000DF91CF911F910F91FF90DF90CF90089568
:102E50006115710579F0FB0101900020E9F73197C8
:102E6000AF01461B570BDC01ED91FC910280F38111
:102E7000E02D099480E090E008958DE991E0909331
:102E8000C6048093C50485EC94E00C943908CF9374
:102E9000DF93CDB7DEB727970FB6F894DEBF0FBE2E
:102EA000CDBF789484B5826084BD84B5816084BDD3
:102EB00085B5826085BD85B5816085BD80916E00D8
:102EC000816080936E001092810080918100826009
:102ED0008093810080918100816080938100809146
:102EE00080008160809380008091B1008460809335
:102EF000B1008091B00081608093B00080917A0031
:102F0000846080937A0080917A00826080937A0056
:102F100080917A00816080937A0080917A00806845
:102F200080937A001092C100E0918003F0918103B8
:102F300082E08083E0917C03F0917D031082E09138
:102F40007E03F0917F038FEC808310928803E091E1
:102F50008403F091850386E08083E0918203F09101
:102F60008303808180618083E0918203F0918303F9
:102F7000808188608083E0918203F0918303808167
:102F800080688083E0918203F091830380818F7D4C
:102F9000808380E592E00E94680D80914D0381114D
:102FA0002AC0109235031092340388EE93E0A0E01B
:102FB000B0E08093360390933703A0933803B09327
:102FC00039038CE391E0909333038093320385ECD3
:102FD00091E090934103809340031092420310923A
:102FE0004303109244031092450384E080934A0304
:102FF00081E080934D038FEE92E0909314048093D0
:1030000013046CE271E080E090E00E94940A1FB724
:10301000F8948091EE02811127C0E4EAF0E08491F7
:10302000E8EBF0E09491E82FF0E0EE0FFF1FE85995
:10303000FF4FA591B491EC91E92321F461E08AE07E
:103040000E940C0A61E08AE00E94580A8CB58061F7
:103050008CBD8CB580648CBD61E08DE00E94580A07
:1030600061E08BE00E94580A8091EE028F5F8093AE
:10307000EE021FBF229A80E590E00E94211660E8D0
:1030800080E090E00E94A60B65E58BE190E00E9455
:10309000A60B65E58AE190E00E94A60B0E9420162F
:1030A00080E090E4909361038093600380E090E679
:1030B000909369038093680380E098E4909363039E
:1030C0008093620380E098E690936B0380936A0399
:1030D00080E090E5909365038093640380E090E73F
:1030E00090936D0380936C0380E098E59093670361
:1030F0008093660380E098E790936F0380936E035C
:1031000080E590E00E94211646E050E060E071E02A
:1031100089E090E00E94770B85EC91E09A838983A7
:103120001B821C821D821E8244E050E0BE016D5F46
:103130007F4F8FE090E00E94770B0E942016009155
:10314000130410911404D80192961D921D921D92A1
:103150001C929597F80116A217A210A611A69A968E
:103160001D921D921D921C929D9780E69AEEA0E002
:10317000B0E086AB97ABA0AFB1AF80EA9FE0A0E034
:10318000B0E082AF93AFA4AFB5AFD801189686E098
:10319000FD01282F11922A95E9F79801225F3F4FF0
:1031A00094E1F90111929A95E9F7E0E0F1E00190DC
:1031B0000D928A95E1F77801F2E4EF0EF11CD70148
:1031C0001C920E94E11E2FEC37E040E050E00E948C
:1031D0002B1FDC01CB010196A11DB11DF8018483D9
:1031E0009583A683B78380839183A283B383580199
:1031F000F3E4AF0EB11CC5010E94A21364E470E0B9
:10320000C5010E94B713811105C080E692E00E94BB
:10321000680D8AC10E94CE0A2B013C01812C912CA1
:10322000D12C43E0342E52E0C52ED7018C9183304F
:1032300009F404C1811121C0F80184819581A6811E
:10324000B7810196A11DB11D84839583A683B783A1
:103250000E94CE0A641975098609970928EE33E0A1
:1032600040E050E00E94941FA90161E0C8010E9463
:10327000B10681E0D7018C93C3C0843001F5F80119
:1032800084819581A681B7810196A11DB11D84839A
:103290009583A683B7830E94CE0A641975098609AF
:1032A000970928EE33E040E050E00E94941FA90106
:1032B00063E0C8010E94B106D701CC92A1C0813061
:1032C00061F5F80142AD53AD64AD75AD9E012F5F60
:1032D0003F4FC8010E94EB04D82EF2E08F1390C03C
:1032E00089819A81AB81BC81F80184839583A6830F
:1032F000B7830E94CE0A641975098609970928EEDA
:1033000033E040E050E00E94941FA90163E0C8014F
:103310000E94B106D701DC9279C0823009F070C0FA
:10332000F80142AD53AD64AD75AD9E012F5F3F4FC7
:10333000C8010E94EB04D82EF5E08F135BC0D701C3
:103340003C92F80182A193A1A4A1B5A1892B8A2B5B
:103350008B2B41F424E833E040E050E022A333A378
:1033600044A355A3F80186A197A1A0A5B1A5892BD7
:103370008A2B8B2B61F482A193A1A4A1B5A1B69550
:10338000A7959795879586A397A3A0A7B1A7F801BE
:1033900082A593A5A4A5B5A5892B8A2B8B2BA9F46F
:1033A00082A193A1A4A1B5A1AC01BD0123E07695B2
:1033B0006795579547952A95D1F7841B950BA60BD2
:1033C000B70B82A793A7A4A7B5A7F80186A197A1D9
:1033D000A0A5B1A586A797A7A0ABB1AB82A593A5E1
:1033E000A4A5B5A582AB93ABA4ABB5AB882483945D
:1033F000912C0CC0F6E08F1303C0D7011C9206C0BD
:10340000BFEFDB1203C0F7011082D12CF1E08F1661
:10341000910409F40ACF0E94CE0ADC01CB01841981
:103420009509A609B709F80126A937A940AD51ADFC
:10343000281739074A075B0708F0F7CEC5010E9435
:10344000A213F80184819581A681B7810196A11DFF
:10345000B11D84839583A683B7830E94CE0AF801A9
:10346000FE966083718382839383F1E08F169104CB
:1034700009F056C080E590E00E9421166091130487
:1034800070911404625F7F4FCE0101960E94A409DF
:1034900044E050E0BE016D5F7F4F8FE090E00E94FE
:1034A000770B60911304709114046A5E7F4FCE0114
:1034B00001960E94A40944E050E0BE016D5F7F4F79
:1034C00081E090E00E94770B6091130470911404E6
:1034D0006E5E7F4FCE0101960E94A40944E050E049
:1034E000BE016D5F7F4F85E090E00E94770B0E94E8
:1034F00020166091130470911404625E7F4FCE0118
:1035000001960E94A4098B819C81AD81BE8180932C
:103510000F0490931004A0931104B093120405C0FB
:10352000892809F472CE01C0FFCF85EC91E09A831F
:1035300089831B821C821D821E8280E590E00E948E
:10354000211644E050E0BE016D5F7F4F8FE090E0B8
:103550000E94470B0E94201660E773E0CE0101969F
:103560000E9440096BEE71E080E793E00E9428170B
:103570001092E0041092DF041092DE041092DD0439
:103580001092DC041092DB048DE991E09093E20448
:103590008093E1049091D104963108F057C02DEB4F
:1035A00030E03093DC042093DB042BE931E03093EE
:1035B000DE042093DD042CE231E03093E00420931C
:1035C000DF0420916800983050F031E09E3008F41C
:1035D00030E081E001C0880F3A95EAF701C084E04D
:1035E000822B80936800983038F09E3040F09631FE
:1035F00048F020E030E008C02DE630E005C02BE6C2
:1036000030E002C02CE630E03093D9042093D80497
:10361000983030F481E001C0880F9A95EAF70EC027
:10362000292F30E09E3018F42850310902C02E5066
:10363000310981E001C0880F2A95EAF78093DA0406
:103640008091E1049091E2040197F1F78091DF0409
:103650009091E004892B21F18091EC029091ED0290
:1036600024E0853C9207E1F0009711F00E943908B0
:103670008091E3048E7F8093E3041092EB0210921A
:10368000EA0285EC94E09093ED028093EC02E091E5
:10369000D804F091D90490818091DA04892B808339
:1036A00085EC91E09A8389838091E6049091E70408
:1036B000A091E804B091E9048B839C83AD83BE8321
:1036C000CE0101960E94DB1088E491E09093A9045A
:1036D0008093A8046CED75E080E090E00E94940A6D
:1036E00088E892E00E94680D22242394312CEBEFAD
:1036F0004E2E55245A940E94330D8823B1F00E9417
:10370000330D882309F4A0C164C089EF91E00E94C1
:103710007B0D0E94EA0E8823C9F187E192E00E94A6
:10372000680D0E94330D811105C00E94330D88235E
:1037300061F3E5CF80919D0490919E04019629F05C
:1037400090939E0480939D0404C030929E04209226
:103750009D0480919D0490919E04909322048093F7
:10376000230447E050E06DE174E085E992E00E94B7
:10377000800DFC01E55EFB4F1282AC014450510903
:103780006DE174E082E80E94A10DCFCF81E292E06A
:103790000E947B0D4091B6045091B704052E000C99
:1037A000660B770B77FF05C080E793E00E947E11E0
:1037B00005C02AE080E793E00E9435118DE292E097
:1037C0000E94680D68E873E180E090E00E94940A2E
:1037D000ACCF0E94CE0A6B017C018091A304909132
:1037E000A404A091A504B091A604A7019601281BEA
:1037F000390B4A0B5B0BDA01C90189399A43A105E0
:10380000B105A8F480919F049091A004A091A10417
:10381000B091A204A7019601281B390B4A0B5B0B40
:10382000DA01C90189399A43A105B105C8F120918E
:10383000A70480911B0490911C04222371F04CEF8B
:103840005FEF5093B7044093B604DC01ED91FC9117
:103850000288F389E02D0995F7C0B0ECB0931D0400
:1038600010921E04DC01ED91FC910280F381E02DA9
:1038700042E050E06DE174E00995C0929F04D0925F
:10388000A004E092A104F092A204C092A304D092FA
:10389000A404E092A504F092A604B1E0B093A704BA
:1038A00080911B0490911C04DC01ED91FC9104803B
:1038B000F581E02D0995892B09F4C6C0CE0101964A
:1038C0000E94120E4C01892B09F4BEC0C092A304C1
:1038D000D092A404E092A504F092A60410911D04D5
:1038E000812F807F803309F094C06090A80470908D
:1038F000A9046114710409F4A7C0ADB6BEB6E9818C
:10390000F0E0DF01A55EBB4F13964C91139750E09A
:10391000542F442714968C91480F511DCA010196CB
:103920002DB73EB7281B390B0FB6F8943EBF0FBE1C
:103930002DBF8DB79EB70196BC0120E030E0241763
:10394000350769F0D901AE0FBF1FA55EBB4F1596B5
:103950000C91DB010D93BD012F5F3F4FF0CFDC01D8
:10396000A20FB31F1C9216701F831230E9F5B90124
:103970006E0F7F1FDB01A55EBB4F15960C9115974F
:1039800010E0102F002716964C91040F111DA20174
:103990004E1B5F0B421B530B480D591D6E5D7B4F39
:1039A000F3010995F0E4F0931D042F8120931E0488
:1039B00010931F040093200480911B0490911C0419
:1039C000DC01ED91FC910280F381E02D44E050E0B8
:1039D0006DE174E00995C0929F04D092A004E0923A
:1039E000A104F092A2040FC04DEF5FEF4E1B5F0BDE
:1039F000421B530B480D591D2E0F3F1FB901605E2E
:103A00007B4FF30109950FB6F894BEBE0FBEADBE55
:103A10001BC0803CA9F4F0EDF0931D0410921E042D
:103A200080911B0490911C04DC01ED91FC910280BB
:103A3000F381E02D42E050E06DE174E0099504C0AF
:103A4000803D11F41092A7040E94110954CE85EC18
:103A500091E09093F1048093F0041092F20410929C
:103A6000F3041092F4041092F50410927303109270
:103A7000720348EE53E060E070E0409374035093AB
:103A80007503609376037093770329E631E03093F2
:103A900071032093700325EC30E030937D03209375
:103AA0007C0324EC30E030937F0320937E0320ECF2
:103AB00030E0309381032093800321EC30E0309399
:103AC00083032093820322EC30E03093850320931C
:103AD000840326EC30E03093870320938603109212
:103AE000890310928A0310928B0310928C03909397
:103AF000F7048093F6041092F8041092F9041092DF
:103B0000FA041092FB049093FD048093FC0410923D
:103B1000FE041092FF04109200051092010590938C
:103B2000030580930205109204051092050510927A
:103B300006051092070590930905809308051092D9
:103B40000A0510920B0510920C0510920D0590932A
:103B50000E0480930D0410920F0410921004109222
:103B6000110410921204909316048093150410927D
:103B70001704109218041092190410921A049093CA
:103B80000F0580930E0510921005109211051092EA
:103B90001205109213059093150580931405109249
:103BA000160510921705109218051092190590939A
:103BB000EB048093EA041092EC041092ED0410924E
:103BC000EE041092EF049093E5048093E4048CEAF1
:103BD0008093E60480E18093E70484E18093E80425
:103BE00083E28093E9041092C8041092C7044093C2
:103BF000C9045093CA046093CB047093CC048DE93C
:103C000091E09093C6048093C5041092DC04109256
:103C1000DB041092DE041092DD041092E004109296
:103C2000DF041092E2041092E1046091E3046E7FDD
:103C30006D7F6093E3046695617081E0682789E099
:103C40000E940C0A61E089E00E94580AE7EBF0E06C
:103C5000E491E093D504E3EAF0E0E491F0E0EE0FC4
:103C6000FF1FEA57FF4F859194919093D70480935B
:103C7000D60460E088E00E94580A8091E30481FD48
:103C800004C061E088E00E940C0A88E08093D104BF
:103C9000E6EBF0E0E491E093D204E2EAF0E0E491B4
:103CA000F0E0EE0FFF1FE057FF4F85919491909346
:103CB000D4048093D3041092BB041092BA0488EE0B
:103CC00093E0A0E0B0E08093BC049093BD04A09387
:103CD000BE04B093BF0489E791E09093B904809348
:103CE000B80484E08093C40485EC91E09093AB0425
:103CF0008093AA041092AC041092AD041092AE040A
:103D00001092AF048FEF9FEF9093B7048093B604A7
:103D100088EB94E090931C0480931B041092B504EC
:103D20001092B40408958F929F92AF92BF92CF9257
:103D3000DF92EF92FF92CF93DF93EC01688179815C
:103D40008A819B81611571058105910521F464E2E9
:103D500079ED8BE597E02DE133EF41E050E00E94F3
:103D60002B1F49015A019B01AC01A7EAB1E40E9453
:103D70004A1F6B017C01ACEEB4EFA50194010E94D7
:103D8000581FDC01CB018C0D9D1DAE1DBF1DB7FF63
:103D900003C00197A109B04888839983AA83BB8394
:103DA000BC01CD019F77DF91CF91FF90EF90DF9025
:103DB000CF90BF90AF909F908F9008950E94931ED8
:103DC000089588E091E00E94931E08956093080191
:103DD0007093090180930A0190930B0108951F933A
:103DE000FC0199278827BC01E89411911032E9F36E
:103DF000193010F01E30C8F31B3251F01D3249F457
:103E0000689406C00E94161F610F711D811D911DCF
:103E1000119110531A30B0F33EF49095809570953F
:103E200061957F4F8F4F9F4F1F910895592F482FB6
:103E3000372F262F660F771F881F991F660F771F52
:103E4000881F991F620F731F841F951F660F771FAE
:103E5000881F991F0895052E97FB1EF400940E9459
:103E6000421F57FD07D00E94941F07FC03D04EF459
:103E70000C94421F50954095309521953F4F4F4FE0
:103E80005F4F089590958095709561957F4F8F4F06
:103E90009F4F08950E94B61FA59F900DB49F900D4F
:103EA000A49F800D911D11240895B7FF0C944A1F03
:103EB0000E944A1F821B930B08952F923F924F92AC
:103EC0005F926F927F928F929F92AF92BF92CF92AA
:103ED000DF92EF92FF920F931F93CF93DF93CDB7B3
:103EE000DEB7CA1BDB0B0FB6F894DEBF0FBECDBF2B
:103EF00009942A88398848885F846E847D848C84FC
:103F00009B84AA84B984C884DF80EE80FD800C8104
:103F10001B81AA81B981CE0FD11D0FB6F894DEBFE7
:103F20000FBECDBFED010895A1E21A2EAA1BBB1B47
:103F3000FD010DC0AA1FBB1FEE1FFF1FA217B30775
:103F4000E407F50720F0A21BB30BE40BF50B661F8B
:103F5000771F881F991F1A9469F76095709580954F
:103F600090959B01AC01BD01CF010895A29FB001C6
:103F7000B39FC001A39F700D811D1124911DB29F9D
:103F8000700D811D1124911D089597FB072E16F4C5
:103F9000009407D077FD09D00E94E01F07FC05D0F0
:103FA0003EF4909581959F4F0895709561957F4F50
:103FB00008956927962769277827872778270895FE
:103FC000AA1BBB1B51E107C0AA1FBB1FA617B7073F
:103FD00010F0A61BB70B881F991F5A95A9F780955B
:103FE0009095BC01CD010895EE0FFF1F0590F4914F
:103FF000E02D0994CF93DF938230910510F482E095
:1040000090E0E0912405F091250520E030E0C0E04B
:10401000D0E0309711F14081518148175907C0F025
:104020004817590761F482819381209719F09B8387
:104030008A832BC0909325058093240526C02115E3
:10404000310519F04217530718F49A01BE01DF0138
:10405000EF010280F381E02DDCCF2115310509F15C
:10406000281B390B2430310590F412968D919C91C8
:1040700013976115710521F0FB019383828304C0BE
:104080009093250580932405FD01329644C0FD01DF
:10409000E20FF31F81939193225031092D933C93AA
:1040A0003AC02091220530912305232B41F4209121
:1040B0000E0130910F0130932305209322052091AA
:1040C0000C0130910D012115310541F42DB73EB79A
:1040D0004091100150911101241B350BE0912205F4
:1040E000F0912305E217F307A0F42E1B3F0B2817CE
:1040F000390778F0AC014E5F5F4F2417350748F061
:104100004E0F5F1F50932305409322058193919397
:1041100002C0E0E0F0E0CF01DF91CF9108950F936E
:104120001F93CF93DF93009709F48CC0FC01329763
:1041300013821282009124051091250501151105A5
:1041400081F420813181820F931F209122053091CB
:1041500023052817390779F5F0932305E093220505
:1041600071C0D80140E050E0AE17BF0750F412967E
:104170002D913C911397AD012115310509F1D9011C
:10418000F3CF9D01DA013383228360817181860F31
:10419000971F8217930769F4EC0128813981260F54
:1041A000371F2E5F3F4F318320838A819B8193830A
:1041B0008283452B29F4F0932505E093240542C022
:1041C0001396FC93EE931297ED01499159919E013C
:1041D000240F351FE217F30771F480819181840F5A
:1041E000951F029611969C938E93828193811396CC
:1041F0009C938E931297E0E0F0E0D80112968D9197
:104200009C911397009719F0F8018C01F6CF8D91CE
:104210009C9198012E5F3F4F820F931F20912205A2
:10422000309123052817390769F4309729F4109243
:1042300025051092240502C01382128210932305D3
:1042400000932205DF91CF911F910F910895A0E077
:10425000B0E0EDE2F1E20C94611FEC01009721F473
:10426000CB010E94FA1FB8C0FC01E60FF71F9C01AA
:1042700022503109E217F30708F4ACC0D9010D91BF
:104280001C91119706171707B0F00530110508F4B7
:104290009FC0C80104978617970708F499C0025079
:1042A0001109061B170B019311936D937C93CF019A
:1042B0000E948F208DC05B01A01AB10A4C01800EB4
:1042C000911EA0912405B091250540E050E0E12C1D
:1042D000F12C109709F44AC0A815B905D1F56D90D5
:1042E0007C901197630182E0C80ED11CCA14DB04D4
:1042F00080F1A3014A195B096A0182E0C80ED11C52
:104300001296BC9012971396AC91B5E0CB16D104DF
:1043100040F0B282A38351834083D9016D937C9393
:104320000AC00E5F1F4FC301800F911FF9019183D7
:104330008083EB2DFA2FE114F10431F0D7011396AD
:10434000FC93EE93129744C0F0932505E093240567
:104350003FC08D919C9111974817590708F4AC0103
:104360007D0112960D90BC91A02DB3CF80912205B6
:104370009091230588159905E1F446175707C8F46D
:1043800080910C0190910D01009741F48DB79EB77B
:104390004091100150911101841B950BE817F9070A
:1043A000C8F4F0932305E0932205F901718360833B
:1043B0000FC0CB010E94FA1F7C01009759F0A801A1
:1043C000BE010E940322CE010E948F20C70104C0BB
:1043D000CE0102C080E090E0CDB7DEB7EEE00C94F5
:1043E0007D1F81E090E0F8940C941322FB01DC0126
:1043F00004C08D910190801921F441505040C8F7BC
:10440000881B990B0895FB01DC0102C001900D92FD
:1044100041505040D8F70895FB01DC0101900D9206
:104420000020E1F7089510E0C2E6D0E004C0FE01EC
:104430000E94F41F2196C336D107C9F7F894FFCF25
:10444000DEEDBAFEFEED00C0010000000000260512
:104450008000000000008A098A098A098A098A09FD
:104460008A098A09DD118A098A098A098A098A0959
:104470008A098A098A098A0900000000A811F7122E
:10448000BE114E12F311A711B7135D14A213D41469
:104490002F1314149E122F12D611C611C21100042C
:1044A0004D5154540400000000A808CD0C71084F71
:1044B000086308EF08000000008815241695127B99
:1044C000120C12F2119816AD15771240151C15EA50
:1044D00011AA15A815DF119E1500000000BB00CD24
:1044E0000C0F012701A200BA00000000008A09CDCC
:1044F0000C8A098A098A098A09000000008A09CD04
:104500000C000000004009000000008A0901005E64
:104510000000004D65737361676520617272697692
:104520006564205B005D20002D3E000D0A00776170
:104530006974696E672E2E2E00417474656D7074F7
:10454000696E67204D51545420636F6E6E656374BD
:10455000696F6E2E2E2E00636F6E6E6563746564D8
:10456000006661696C65642C2072633D0020747282
:104570007920616761696E20696E203520736563FB
:104580006F6E6473006432730057495A6E6574002D
:10459000696E697469616C697A696E672E2E2E0086
:1045A0004661696C656420746F20636F6E6669672D
:1045B0007572652045746865726E657420757369DF
:1045C0006E67204448435000696E697469616C6984
:1045D0007A65642E007332642F32006172647569EB
:0A45E0006E6F436C69656E74000095
:00000001FF
