:100000000C9463000C948B000C948B000C94C3072D
:100010000C94C3070C94C3070C948B000C948B00B6
:100020000C948B000C948B000C948B000C948B0024
:100030000C948B000C948B000C948B000C948B0014
:100040000C94DE0A0C948B000C94DE090C94B80915
:100050000C948B000C948B000C948B000C948B00F4
:100060000C948B000C948B000000000024002700EF
:100070002A0000000008000201000003040700003D
:1000800000000000000000000000250028002B00F8
:1000900000000000230026002900040404040404D6
:1000A0000404020202020202030303030303010227
:1000B00004081020408001020408102001020408F6
:1000C00010202B1D411711241FBECFEFD8E0DEBF3B
:1000D000CDBF12E0A0E0B1E0E8E4F4E402C0059096
:1000E0000D92AE3AB107D9F725E0AEEAB2E001C011
:1000F0001D92AA32B207E1F710E0C2E6D0E004C0D8
:100100002197FE010E94F81FC136D107C9F70E944E
:100110004B170C9417220C94000080E3FB018083A2
:100120003296842F82958F7090E1899F4019112417
:100130004A3014F4405D01C0495C4293482F81115C
:10014000F0CF08952091F0023091F102281739077D
:1001500071F49091EE028091EF02981741F0E091D6
:10016000EE02F0E0E255FD4F808190E008958FEFC0
:100170009FEF089508951F93CF93DF93DC015C9662
:100180002D913C915D972115310539F481E090E086
:1001900013969C938E9312973DC05196ED91FC91CE
:1001A000529750969C915097892F80951FB75E96D5
:1001B0004C915E9741FB772770F941FD6095F8946B
:1001C0004081772311F0492B01C048234083E90186
:1001D0002197F1F748E0508160FF02C0592B01C020
:1001E00058235083E9012197F1F76695415099F71B
:1001F000772321F090818923808303C08081982B0D
:1002000090831FBF5C968D919C915D970197F1F74C
:1002100021E030E0C901DF91CF911F910895209135
:10022000F0023091F1022817390771F48091EF0242
:100230002091EE0290E0805C9F4F821B910960E468
:1002400070E00E94C91F089580E090E00895209119
:10025000F0023091F10228173907B9F49091EE02BB
:100260008091EF02981789F0E091EE02F0E0E255FC
:10027000FD4F80812091EE0230E02F5F3F4F2F73C2
:1002800033272093EE0290E008958FEF9FEF0895BB
:10029000EF92FF920F931F93CF93DF93CDB7DEB70B
:1002A0002C970FB6F894DEBF0FBECDBF8C017A013C
:1002B00018861F821A8619861C861B866115710591
:1002C00061F0FB0101900020E9F73197AF01461B77
:1002D000570BCE0107960E94F91083ED91E00E9422
:1002E0007F0DC8010E947F0D85EE91E00E947F0D79
:1002F0004B855C856F81788584E793E00E94D10C03
:1003000088EE91E00E947F0D1A8219821C821B8266
:100310001E821D8240E050E06DEE71E0CE0101963C
:100320000E94F9108B859C85009779F187018E15C5
:100330009F0508F48C01EF81F885E00FF11FF08034
:1003400010826F8178856115710569F0FB0101905C
:100350000020E9F73197AF01461B570BCE010196FC
:100360000E94F9100CC089819A81009711F00E94B7
:1003700093201A8219821E821D821C821B828F8109
:100380009885FC01E00FF11FF0824D815E8169814B
:100390007A8184E793E00E94D10C6BEE71E084E7F0
:1003A00093E00E942C1789819A81009759F00E944E
:1003B000F31EAB01BC0177FF08C089EC94E00E94FA
:1003C000821108C040E050E0BA012AE089EC94E0D4
:1003D0000E9439116BEE71E089EC94E00E942C17B9
:1003E00089EC94E00E940F01892B59F48EEE91E084
:1003F0000E946C0D68EB7BE080E090E00E94980A20
:10040000EFCF89EC94E00E940F01892B89F089ECF1
:1004100094E00E942701F5CF89EF91E00E947F0DC3
:100420000E94EE0E882349F087E192E00E946C0D55
:100430000E94370D882381F323C081E292E00E945D
:100440007F0D4091BA045091BB04052E000C660B41
:10045000770B77FF05C084E793E00E94821105C007
:100460002AE084E793E00E9439118DE292E00E9435
:100470006C0D68E873E180E090E00E94980AD8CFA4
:100480000E94370D8823B9F045E050E061E274E046
:1004900085E492E00E94840DFC01E15EFB4F2FE4B5
:1004A00022832BE42383AC014350510961E274E0C1
:1004B00080E30E94A50D89E492E00E946C0D898181
:1004C0009A810E9493208F8198850E9493202C9678
:1004D0000FB6F894DEBF0FBECDBFDF91CF911F9155
:1004E0000F91FF90EF9008952F923F924F925F925D
:1004F0006F927F928F929F92AF92BF92CF92DF9234
:10050000EF92FF920F931F93CF93DF93CDB7DEB798
:1005100065970FB6F894DEBF0FBECDBF7C016B01AF
:100520003A01FB0120E080E090E06AE03191332362
:1005300009F140ED430F4A3080F4689FA001699FA4
:10054000500D1124CA01C097830F911D37FD9A9554
:100550008F3F910559F350F313C03E3289F4233095
:1005600079F0D301A20FB11D12968C932F5F80E01A
:1005700090E0DCCF233021F4F301858381E021C0BA
:10058000F701428153816481758180911B049091B0
:100590001C04A0911D04B0911E04481759076A0756
:1005A0007B0709F49EC10E94D20A8701085F1F4F92
:1005B0006F7077277C5FC8010E94BB13813019F0F0
:1005C00080E090E0F3C185EC91E09A838983F701A4
:1005D00082819381A481B5818B839C83AD83BE830B
:1005E00045E350E0BE016F5F7F4FC8010E94D81401
:1005F000892B19F4C12CD12C6FC10E94D20AF701AA
:10060000778366837627672776277A83698342E034
:1006100050E0BE016F5F7F4FC8010E94FB1281E076
:1006200090E09E878D8742E050E0BE01635F7F4F80
:10063000C8010E94FB1280E091E09E878D8742E016
:1006400050E0BE01635F7F4FC8010E94FB121E860F
:100650001D8642E050E0BE01635F7F4FC8010E94EB
:10066000FB1242E050E0BE01635F7F4FC8010E9471
:10067000FB1242E050E0BE01635F7F4FC8010E9461
:10068000FB125601F5018081882311F1F6015F010B
:100690008191811115C045018C189D081814190409
:1006A00094F48F8641E050E0BE01615F7F4FC80146
:1006B0000E94FB12A401B601C8010E94FB1203C0F4
:1006C0008E3229F7E8CF6501FFEFCF1ADF0ADACFC4
:1006D0001F8641E050E0BE01615F7F4FC8010E946C
:1006E000FB12C12CDD24D394DE86CD8642E050E09F
:1006F000BE01635F7F4FC8010E94FB12DE86CD867C
:1007000042E050E0BE01635F7F4FC8010E94FB12D0
:10071000C8010E941814892B09F46CCF63E0A62E3F
:10072000B12CF2E06F0E711C0E94D20A1B012C0149
:10073000C8010E94A21218161906A4F00E94D20A3B
:10074000DC01CB0182199309A409B50989389341C9
:10075000A105B105D0F462E370E080E090E00E9472
:10076000980AE6CFF7014281538164817581808DBB
:10077000918DA28DB38D481759076A077B0741F405
:10078000848D958DC59721F406C02FEF3FEF9AC059
:100790002EEF3FEF97C0F70181A192A10C970CF4C7
:1007A000A6C04CE050E0BE016F5F7F4FC8010E94C1
:1007B00033128B8190E0982F88272C81822B9A8B83
:1007C000898B298130E0322F22274A81242BF7019F
:1007D000468157814217530709F086C097FF84C0AE
:1007E0008F709270892B09F0DEC0CF80D12CDC2C69
:1007F000CC248885C82AC114D10409F4D1C0812C25
:10080000912C8D8190E0982F88272E81822B88163D
:10081000990608F46FC0812C912C41E050E0BE0194
:100820006D5E7F4FC8010E9433128B89982F907C98
:1008300009F093C0811186C08B898111EECF42E00F
:1008400050E0BE01615F7F4FC8010E94331242E059
:1008500050E0BE01635F7F4FC8010E943312C801A0
:100860000E945212C8010E945212C8010E945212E4
:10087000C8010E94521242E050E0BE016F5E7F4FFD
:10088000C8010E9433128F8598898115914009F023
:1008900069C02D853E853227232732272130310537
:1008A00009F060C089899A898115944009F075C062
:1008B00044E050E0B301C8012C8B3D8B0E94331201
:1008C0002C893D896901F1E0AF1AB10829F02FEFB9
:1008D000C216D20609F428CFC8010E94A613C60189
:1008E00065C08EEF9FEF62C02CEF3FEFEBCF2DEF97
:1008F0003FEFE8CF41E050E0BE01635F7F4FC801AA
:100900000E9433128D85811113C08D858111F2CF24
:10091000C8010E945212C8010E945212C8010E94CE
:100920005212C8010E945212FFEF8F1A9F0A69CF1C
:100930008D859FEF980F9D87882339F3C8010E940A
:100940005212F6CF8B899FEF980F9B8B882309F467
:1009500073CFC8010E945212F5CFC8010E945212F3
:100960001B8A6ACF412C512C89899A89982789271B
:1009700098274816590638F4C8010E9452128FEF82
:10098000481A580AF1CFEFEF8E1A9E0A8C149D0474
:1009900009F043CF26EF3FEF95CF27EF3FEF92CF00
:1009A0002AEF3FEF8FCF2BEF3FEF8CCF65960FB63F
:1009B000F894DEBF0FBECDBFDF91CF911F910F9195
:1009C000FF90EF90DF90CF90BF90AF909F908F906F
:1009D0007F906F905F904F903F902F9008952F924F
:1009E0003F924F925F926F927F928F929F92AF92BF
:1009F000BF92CF92DF92EF92FF920F931F93CF930C
:100A0000DF93CDB7DEB7E3970FB6F894DEBF0FBE26
:100A1000CDBF7C011A012B0139010E94D20A4B0182
:100A20005C0187010D5B1F4FC8010E94A2121816BE
:100A30001906A4F00E94D20ADC01CB018819990999
:100A4000AA09BB09281639064A065B06D8F062E3F4
:100A500070E080E090E00E94980AE6CF42E250E029
:100A6000BE016F5F7F4FC8010E94331289818230BF
:100A700011F080E061C1F801848995898334910582
:100A8000C1F702C08FEF58C16D817E818F8198853B
:100A90000E94DD1F4B015C01F3016083718382833F
:100AA000938346E050E0B701685F7F4FCE014D96DB
:100AB0000E94FA21892BE9F6F70180819181A281B8
:100AC000B38188169906AA06BB0698F2848195819F
:100AD000A681B78188159905AA05BB0550F28989B9
:100AE0009A89AB89BC8986879787A08BB18B8EEC5E
:100AF000A82EB12CC8010E945212F1E0AF1AB10821
:100B0000C9F719A6670182E2C80ED11CF701B69693
:100B1000FBA7EAA7C7018A969DA78CA73C974F0120
:100B200089969FA78EA73897F9ABE8AB1701F6E136
:100B30002F0E311CC5979BAB8AABF801818D928D2E
:100B4000181619060CF0F7C0C8010E945212833320
:100B5000910509F4CBC0FCF481309105C9F11CF476
:100B6000892B59F3DCC083309105D1F1069709F048
:100B7000D6C0C8010E9452125C0144E050E06AA94C
:100B80007BA9C8010E943312412C512CBB24F4E0F4
:100B9000AF1AB10840C08A33910509F47BC03CF418
:100BA0008533910569F0C69709F440C0B8C08B330E
:100BB000910509F485C08F3F910509F4BECFAFC000
:100BC000C8010E945212C8010E94521289A7B5CFD3
:100BD000C8010E94521244E050E068A979A93AC0C5
:100BE000C8010E9452125C0144E050E0B101C8010A
:100BF0000E943312412C512CBB2494E0A91AB10855
:100C00004A145B040CF099CFC8010E945212EFEF16
:100C10004E1A5E0AF5CF4A145B040CF08ECFC80161
:100C20000E9452128FEF481A580AF5CFC8010E944D
:100C30005212B82EF701828D811110C0838D81115F
:100C40000DC0848D81110AC0858D811107C044E0DB
:100C500050E0B401C8010E9433126FCFEEA5FFA58A
:100C60004080518062807380B401CE0183960E94DF
:100C7000A8098DA19EA1AFA1B8A584159505A605CB
:100C8000B70529F3BB2009F458CFC8010E945212BE
:100C9000BA94F8CFC8010E94521244E050E06AA50D
:100CA0007BA5C8010E943312F70166A177A180A538
:100CB00091A50E94DD1F66A377A380A791A73DCFD2
:100CC000C8010E94521244E050E06CA57DA5C80105
:100CD0000E943312F70162A573A584A595A50E9411
:100CE000DD1F62A773A784A795A727CFC8010E941D
:100CF000521244E050E0B601C8010E943312F701DD
:100D000062A173A184A195A10E94DD1F62A373A3B8
:100D100084A395A366A777A780AB91AB0ECFC8013C
:100D20000E945212B82EBB2009F407CFC8010E94BE
:100D30005212BA94F8CF89A5E3960FB6F894DEBFA5
:100D40000FBECDBFDF91CF911F910F91FF90EF901C
:100D5000DF90CF90BF90AF909F908F907F906F90DB
:100D60005F904F903F902F9008957F928F929F9227
:100D7000AF92BF92CF92DF92EF92FF920F931F93A9
:100D8000CF93DF93CDB7DEB7A6970FB6F894DEBF4B
:100D90000FBECDBF8C01762E942E852E20E2B22E72
:100DA000CE0101967C01FC012B2D11922A95E9F7C9
:100DB00085EC91E09AA389A38FEF8BA38CA38DA3DD
:100DC0008EA3680183E4C80ED11C43E450E0BE0149
:100DD0006F5D7F4FC6010E94D814019609F4BFC011
:100DE00081E089838A8386E0A82EAB821C82F80189
:100DF00064817581868197810E94DD1F6D837E836A
:100E00008F83988789869A8680E890E09C878B8775
:100E10004CE150E0B701C6010E94FB12F7012B2DF7
:100E200011922A95E9F7480188E0880E911CF40197
:100E3000D70101900D92AA94E1F740E150E0B7018B
:100E4000C6010E94FB12F7011192BA94E9F796E0ED
:100E5000A92EB12C40E250E0B701C6010E94FB125E
:100E6000F1E0AF1AB108B1F783E6898392E89A837B
:100E700093E59B838C8385E38D8381E08E837F82E2
:100E80009DE3988797E099878A8786E0F401DE01E1
:100E90001B9601900D928A95E1F78CE0898B8A8BE5
:100EA0006CE472E0CE0143960E941022F801438563
:100EB000BE01675E7F4FC8010E948D00F801448526
:100EC000BE01655E7F4FC8010E948D00F801458517
:100ED000BE01635E7F4FC8010E948D004EE150E06D
:100EE000B701C6010E94FB12F3E07F121EC082E32D
:100EF000898384E08A83F80196859B8397859C8308
:100F000090899D8391899E8396E39F838887828DB4
:100F10008987838D8A87848D8B87858D8C874CE02C
:100F200050E0B701C6010E94FB1287E3898386E087
:100F30008A8391E09B8393E09C838D838FE08E83F3
:100F40008AE38F838BE388878FEF898749E050E0BE
:100F5000B701C6010E94FB12C6010E941814A69692
:100F60000FB6F894DEBF0FBECDBFDF91CF911F91BA
:100F70000F91FF90EF90DF90CF90BF90AF909F9038
:100F80008F907F9008951F920F920FB60F921124A9
:100F90002F933F934F935F936F937F938F939F9381
:100FA000AF93BF93EF93FF93E091F002F091F102C2
:100FB000309709F451C0968DA685B785858591FF38
:100FC00004C09C91892329F447C09C91892309F08E
:100FD00043C0A389B4899C918589809589238C938A
:100FE000868997890197F1F7608D718DA685B78500
:100FF000558538E020E0CB010197F1F7822F90E092
:1010000095958795282F4C91452309F020683150FC
:1010100091F7868D81FD20958091EF0290E00196F9
:101020008F7399273091EE02381749F0A091EF02A3
:10103000B0E0A255BD4F2C938093EF0203C0868D84
:101040008160868F828D938D0197F1F7A389B48992
:101050009C918589892B8C93FF91EF91BF91AF91E2
:101060009F918F917F916F915F914F913F912F91C0
:101070000F900FBE0F901F901895E091F002F09125
:10108000F102E817F90769F4A389B4899C9185896D
:10109000809589238C931092F1021092F00281E0E6
:1010A000089580E00895FC01918D828D981761F07C
:1010B000828DDF01A80FB11D5D968C91928D9F5F8F
:1010C0009F73928F90E008958FEF9FEF0895FC013A
:1010D000918D828D981731F0828DE80FF11D858DED
:1010E00090E008958FEF9FEF0895FC01918D228D80
:1010F000892F90E0805C9F4F821B91098F73992705
:10110000089584E793E00E94750821E0892B09F493
:1011100020E0822F0895FC01848DDF01A80FB11D0E
:10112000A35ABF4F2C91848D90E001968F7399271D
:10113000848FA689B7892C93A089B1898C9180640A
:101140008C93938D848D981306C00288F389E02DCB
:1011500080818F7D80830895EF92FF920F931F937C
:10116000CF93DF93EC0181E0888F9B8D8C8D98135A
:1011700005C0E889F989808185FD24C0F62E0B8D94
:1011800010E00F5F1F4F0F731127E02E8C8DE812B8
:101190000CC00FB607FCFACFE889F989808185FF7A
:1011A000F5CFCE010E948B08F1CF8B8DFE01E80FA9
:1011B000F11DE35AFF4FF0820B8FEA89FB89808192
:1011C000806207C0EE89FF896083E889F9898081A0
:1011D0008064808381E090E0DF91CF911F910F9137
:1011E000FF90EF900895CF93DF93EC01888D8823D3
:1011F000C9F0EA89FB89808185FD05C0A889B98984
:101200008C9186FD0FC00FB607FCF5CF808185FF5E
:10121000F2CFA889B9898C9185FFEDCFCE010E94CC
:101220008B08E7CFDF91CF91089580E090E0892B84
:1012300029F00E94810881110C94000008953FB7A5
:10124000F8948091600390916103A0916203B09142
:10125000630326B5A89B05C02F3F19F00196A11D79
:10126000B11D3FBFBA2FA92F982F8827820F911D3C
:10127000A11DB11DBC01CD0142E0660F771F881F83
:10128000991F4A95D1F708958F929F92AF92BF927E
:10129000CF92DF92EF92FF920F931F93CF93DF9342
:1012A0007C01EB016C0182E0C80ED11C4701E5E036
:1012B0008E0E911C00E010E0F60141916F0150E0AC
:1012C00060E070E02AE0CE010E9439115C01E88103
:1012D000F9810190F081E02D6EE2CE0109958A0D31
:1012E0009B1D080F191FC814D90431F7F701458158
:1012F00050E060E070E02AE0CE010E943911800FDA
:10130000911FDF91CF911F910F91FF90EF90DF9090
:10131000CF90BF90AF909F908F9008950E94F5213D
:101320001F93CF93DF93182F66E270E00E94F213B1
:10133000C82FD0E067E270E0812F0E94F213DC2F0B
:10134000CC279E01282BC901DF91CF911F910895D1
:1013500025EC31E0FC0131832083FB014081518188
:1013600062817381FC014283538364837583089592
:101370001F920F920FB60F9211242F933F934F930A
:101380005F936F937F938F939F93AF93BF93EF93ED
:10139000FF9384E793E00E948B08FF91EF91BF9148
:1013A000AF919F918F917F916F915F914F913F91FD
:1013B0002F910F900FBE0F901F9018951F920F92B4
:1013C0000FB60F9211242F938F939F93EF93FF9358
:1013D000E0918403F09185038081E0918A03F0918C
:1013E0008B0382FD12C0908180918D038F5F8F737C
:1013F00020918E03821751F0E0918D03F0E0EC58BC
:10140000FC4F958F80938D0301C08081FF91EF91F8
:101410009F918F912F910F900FBE0F901F90189555
:1014200090E0FC01EE58FF4F3491FC01E255FF4F74
:101430002491FC01E656FF4FE491EE2309F43BC0F2
:10144000332339F1333091F038F43130A9F03230B0
:1014500001F584B58F7D12C0373091F03830A1F09E
:101460003430B9F4809180008F7D03C0809180007A
:101470008F77809380000DC084B58F7784BD09C0BD
:101480008091B0008F7703C08091B0008F7D8093F2
:10149000B000F0E0EE0FFF1FEA57FF4FA591B491A7
:1014A0008FB7F894EC91611103C020952E2301C0F1
:1014B0002E2B2C938FBF0895CF93DF9390E0FC01E8
:1014C000E255FF4F2491FC01E656FF4F849188239B
:1014D00061F190E0880F991FFC01E859FF4FC59119
:1014E000D491FC01EA57FF4FA591B491611109C055
:1014F0009FB7F8948881209582238883EC912E23CE
:101500000BC0623061F49FB7F8943881822F8095C8
:1015100083238883EC912E2B2C939FBF06C08FB71B
:10152000F894E8812E2B28838FBFDF91CF91089507
:101530008F929F92AF92BF92CF92DF92EF92FF92E3
:101540006B017C010E941F094B015C01C114D10495
:10155000E104F104F1F00E941F09DC01CB018819BC
:101560009909AA09BB09883E9340A105B10570F30A
:1015700021E0C21AD108E108F10888EE880E83E064
:10158000981EA11CB11CC114D104E104F10419F787
:10159000DDCFFF90EF90DF90CF90BF90AF909F9006
:1015A0008F9008952FB7F89460915C0370915D035C
:1015B00080915E0390915F032FBF08951F920F9259
:1015C0000FB60F9211242F933F938F939F93AF9356
:1015D000BF9380915C0390915D03A0915E03B091F5
:1015E0005F0330915B0323E0230F2D3720F4019636
:1015F000A11DB11D05C026E8230F0296A11DB11D36
:1016000020935B0380935C0390935D03A0935E0340
:10161000B0935F038091600390916103A091620396
:10162000B09163030196A11DB11D80936003909357
:101630006103A0936203B0936303BF91AF919F9145
:101640008F913F912F910F900FBE0F901F90189583
:101650002A9A08952A9808951F93CF93DF93182FFD
:1016600060E270E00E94F213C82FD0E061E270E007
:10167000812F0E94F213DC2FCC279E01282BC90159
:10168000DF91CF911F9108958EBD00000DB407FE2C
:10169000FDCF8EB50895CF92DF92EF92FF920F9318
:1016A0001F93CF93DF93EC017A018B016C01C40E81
:1016B000D51ECC15DD05A9F00E942A0B8FE00E94F3
:1016C000440B8D2F0E94440B8C2F0E94440B2196BB
:1016D00080E00E94440BF80181938F010E94280B47
:1016E000E8CFC701DF91CF911F910F91FF90EF904D
:1016F000DF90CF900895CF92DF92EF92FF920F93F9
:101700001F93CF93DF93EC017A018B016C01C40E20
:10171000D51ECC15DD05A1F00E942A0B80EF0E949A
:10172000440B8D2F0E94440B8C2F0E94440B21965A
:10173000F80181918F010E94440B0E94280BE9CF90
:10174000C701DF91CF911F910F91FF90EF90DF9034
:10175000CF9008951F93CF93DF9300D0CDB7DEB71E
:10176000182F6A8399830E942A0B80EF0E94440BF2
:101770009981892F0E94440B812F0E94440B6A811A
:10178000862F0E94440B0E94280B81E00F900F903F
:10179000DF91CF911F9108951F93CF93DF9300D0D6
:1017A000CDB7DEB7182F80E590E069837A830E9479
:1017B000251621E041E050E069817A81812F0E9465
:1017C000F60F0E94241681E090E00F900F90DF91B9
:1017D000CF911F910895FF920F931F93CF93DF93A3
:1017E000F82E80E590E00E942516C0E0D0E08F2D15
:1017F0000E9490098C01892B21F08F2D0E94900965
:10180000EC01C017D10799F70E942416CE01DF9191
:10181000CF911F910F91FF900895AF92BF92CF92F9
:10182000DF92EF92FF921F93CF93DF93182F5B010C
:101830007A0180E590E00E942516C0E0D0E0812F7B
:101840000E9490096C01892B21F0812F0E94900940
:10185000EC01CC15DD0599F7209799F463E070E071
:10186000812F0E94F2138431F1F08823E1F0C1E06E
:10187000D0E08C3111F4C0E0D0E0D195C195D10910
:1018800012C0EC16FD060CF4E7011C161D065CF4F4
:1018900020E0AE01B501812F0E94F60F60E470E0F8
:1018A000812F0E94E60F0E942416CE01DF91CF9176
:1018B0001F91FF90EF90DF90CF90BF90AF90089571
:1018C000CF93C82F80E590E00E94251660E170E07C
:1018D0008C2F0E94E60F4FEF62E070E08C2F0E9489
:1018E000E813CF910C942416FF920F931F93CF937C
:1018F000DF9300D0CDB7DEB7F82E8A012A83698343
:101900000E94600C80E590E00E9425162A81698182
:10191000462F422B60E070E08F2D0E94E8130115E6
:10192000110551F40091590310915A030F5F1F4F95
:1019300010935A0300935903412F64E070E08F2DF8
:101940000E94E813402F65E070E08F2D0E94E8139D
:1019500061E070E08F2D0E94E60F0E94241681E066
:101960000F900F90DF91CF911F910F91FF900895ED
:101970001F93CF93DF931F92CDB7DEB7182F80E56B
:1019800090E00E94251663E070E0812F0E94F21320
:1019900089830E94241689810F90DF91CF911F9136
:1019A0000895CF92DF92EF92FF920F931F93CF9300
:1019B000DF936C017A018B01C0E0D0E0CE15DF052A
:1019C00089F0D8016D918D01D601ED91FC910190C6
:1019D000F081E02DC6010995892B11F47E0102C02A
:1019E0002196ECCFC701DF91CF911F910F91FF900E
:1019F000EF90DF90CF900895CF92DF92EF92FF9219
:101A0000CF93DF93EC010E94D20A6B017C0180919D
:101A10001F0490912004DC01ED91FC910480F5817C
:101A2000E02D0995892B79F40E94D20AAB01BC0103
:101A30004C195D096E097F0948395A4361057105E2
:101A400030F380E00DC080911F0490912004DC01F0
:101A5000ED91FC910680F781E02D0995888381E066
:101A6000DF91CF91FF90EF90DF90CF90089580911C
:101A70001F0490912004009759F1DC01ED91FC9135
:101A80000488F589E02D0995811124C08091BA045C
:101A90009091BB04892BE1F48DEF9FEF9093BB04F1
:101AA0008093BA0480911F0490912004DC01ED9191
:101AB000FC910284F385E02D099580911F0490919B
:101AC0002004DC01ED91FC910288F389E02D099559
:101AD00080E0089581E00895CF93DF93BC0184E70F
:101AE00093E00E942C17EC016BEE71E084E793E029
:101AF0000E942C178C0F9D1FDF91CF910895BC0180
:101B000084E793E00C942C17CF93DF93DC014E5FB6
:101B10005F4FFC019F012A1B3B0B9191992339F0E8
:101B2000EB01C40FD51F98834F5F5F4FF3CFCA01FE
:101B3000821B930B680F791FFB013297308331961C
:101B40002083CA01DF91CF910895CF92DF92EF9267
:101B5000FF920F931F93CF93DF9300D000D0CDB7A8
:101B6000DEB79A01E0E0922F9F77220F232F221FEA
:101B7000330B31952115310509F0906801E00E0F06
:101B8000A1E0B0E0AC0FBD1FAE0FB11DFD01908311
:101B90002115310511F0E02FE6CF10E0DB01A01B8D
:101BA000B10B14968C93FE0131966F0180E090E0AA
:101BB0008017910764F4F601F1906F019C01201BDE
:101BC000310B260F371FF901F5820196F1CF809175
:101BD0001F04909120044F5F5F4F040F151FFC01FD
:101BE00020813181F90122813381A801BD01F901F0
:101BF00009957C010E94D20A6093A3047093A40407
:101C00008093A5049093A60481E0E016F10609F004
:101C100080E00F900F900F900F90DF91CF911F9168
:101C20000F91FF90EF90DF90CF9008955F926F92A9
:101C30007F928F929F92AF92BF92CF92DF92EF925C
:101C4000FF920F931F93CF93DF931F92CDB7DEB711
:101C50004C0181E294E00E94FC0C811126C022C05C
:101C60000F5F1F4F8981F801E15EFB4F8183282FB1
:101C70002F7730E02C9DA0012D9D500D3C9D500DE7
:101C80001124A40EB51E37E0CC0CDD1CEE1CFF1C8D
:101C90003A95D1F787FF15C0CE0101960E94FC0C42
:101CA0008111DECF80E090E088C07090210419821D
:101CB00001E010E0A12CB12CC12CD12C7601C394F1
:101CC000EBCF872D807F55245394803309F0512C1E
:101CD0008FEF800FD4018C93552021F1C8018F5DC7
:101CE0009B4F0E94FC0C8823E9F2C8018E5D9B4F3C
:101CF0000E94FC0C8823B1F20E5F1F4FD401EC91BF
:101D0000F0E0E15EFB4FE380F12CFE2CEE248481B9
:101D1000E80EF11C8091210481FF08C0B2E0EB0EB7
:101D2000F11C04C080E0E12CF12C01C082E0C82E3F
:101D3000D12CC01AD10A9EEF692E77247A94C6015D
:101D4000800F911F8A159B0568F5CE0101960E94B0
:101D5000FC0C882309F4A6CF8091B8049091B904B3
:101D60000097A9F0552099F0F4012081A301421BAE
:101D700051099A01200F311FE216F30640F4DC01ED
:101D8000ED91FC910190F081E02D69810995003879
:101D9000110528F48981F801E15EFB4F82830F5F12
:101DA0001F4FCDCF8091B8049091B904892B21F4B5
:101DB0000138110508F076CFC8010F90DF91CF915F
:101DC0001F910F91FF90EF90DF90CF90BF90AF9059
:101DD0009F908F907F906F905F9008958F929F92C9
:101DE000AF92BF92EF92FF921F93CF93DF93CDB745
:101DF000DEB728970FB6F894DEBF0FBECDBF0E94A6
:101E0000370D182F8111D1C06091B4047091B504C1
:101E1000A0911F04B09120044091B6045091B704E2
:101E2000ED91FC9111976115710521F00684F785FC
:101E3000E02D16C00484F585E02D85EC91E09A83B1
:101E400089838090B0049090B104A090B204B090C7
:101E5000B3048B829C82AD82BE82BE016F5F7F4FD6
:101E6000CD0109958130910509F099C09093A204A4
:101E70008093A10487E0EEE5F1E0DE011196019088
:101E80000D928A95E1F7FE013196A6E2B4E07E015B
:101E900028E0E20EF11C81918D93EE15FF05D9F734
:101EA00082E080932D0410922E048FE080932F0403
:101EB0004FE050E061E274E08FE992E00E94840D0F
:101EC000AC014550510961E274E080E10E94A50D2A
:101ED0000E94D20A6093A3047093A4048093A50483
:101EE0009093A6046093A7047093A8048093A90418
:101EF0009093AA0480911F0490912004DC01ED913D
:101F0000FC910480F581E02D0995892BE1F40E9474
:101F1000D20A8090A7049090A804A090A904B09041
:101F2000AA04DC01CB0188199909AA09BB098839DF
:101F30009A43A105B105F0F28CEF9FEF9093BB049B
:101F40008093BA0420C0C7010E94160E0497D9F4EA
:101F500020912404211112C00E94D20A6093A70488
:101F60007093A8048093A9049093AA041092AB04E0
:101F70001092BB041092BA0411E017C030E0309305
:101F8000BB042093BA0480911F0490912004DC01CB
:101F9000ED91FC910288F389E02D099506C08EEF42
:101FA0009FEF9093BB048093BA04812F28960FB6BD
:101FB000F894DEBF0FBECDBFDF91CF911F91FF9090
:101FC000EF90BF90AF909F908F900895CF93C82FC0
:101FD000462F61E070E00E94E81361E070E08C2F12
:101FE0000E94F2138111F9CFCF9108958F929F92A1
:101FF000AF92BF92CF92DF92EF92FF920F931F9317
:10200000CF93DF93B82E4B018A01A22E68E270E0D5
:102010000E94F213C82FD0E069E270E08B2D0E947D
:10202000F213DC2FCC27C82B9E013770CB2CD12C80
:10203000C601880F991FAC0144595C4F6A01FA012F
:1020400080819181820F931FA801420F531F41305D
:10205000584098F060E078E07B01E21AF30AA701AB
:10206000B4010E944B0BA8014E195F09B4016E0D1B
:102070007F1DF6018081918102C0A801B4010E94F8
:102080004B0BA1100EC0C00FD11F4D2F68E270E0A6
:102090008B2D0E94E8134C2F69E270E08B2D0E947B
:1020A000E813DF91CF911F910F91FF90EF90DF9098
:1020B000CF90BF90AF909F908F9008959F92AF92D6
:1020C000BF92CF92DF92EF92FF920F931F93CF9325
:1020D000DF93982E8B015A01690164E270E00E943F
:1020E000F213E82EF12C65E270E0892D0E94F213C4
:1020F000FE2CEE24E82AE701C00FD11F9E013770A5
:10210000E92CF12CC701880F991FAC014C595C4F89
:102110007A01FA0180819181820F931FA9014C0DF0
:102120005D1D4130584090F000E018E0021B130B99
:10213000A801B5010E947B0BA601401B510BB50104
:10214000600F711FF7018081918102C0A601B50166
:102150000E947B0BCC0DDD1D4D2F64E270E0892DBC
:102160000E94E8134C2F65E270E0892DDF91CF913A
:102170001F910F91FF90EF90DF90CF90BF90AF90A5
:102180009F900C94E813FF920F931F93CF93DF93CC
:10219000F82EC0E0D0E08F2D0E942C0B8C01892BF3
:1021A00021F08F2D0E942C0BEC01C017D10799F75D
:1021B000CE01DF91CF911F910F91FF900895FC0107
:1021C00082819381A481B5818093B0049093B104FE
:1021D000A093B204B093B3048BE69EE29093B7044D
:1021E0008093B6041092B5041092B4048FE194E089
:1021F0000895EF92FF920F931F93CF93DF93EC011B
:102200007B018A0188819981009729F02A813B818D
:1022100024173507F8F4B8016F5F7F4F0E942B2118
:10222000009759F0998388831B830A832C813D8111
:10223000232B81F4FC0110820DC0888199810097C5
:1022400011F00E949320198218821D821C821B8229
:102250001A8207C01D830C83B701888199810E946F
:102260001022CE01DF91CF911F910F91FF90EF903F
:1022700008954F925F926F927F92EF92FF920F9329
:102280001F93CF93DF93CDB7DEB7A1970FB6F89426
:10229000DEBF0FBECDBF7C01FA01CB0119A22230F7
:1022A00008F42AE08E010F5D1F4F422E512C612C45
:1022B000712CBF01A30192010E94981FF901CA016C
:1022C000015011096A3014F4605D01C0695CD801E5
:1022D0006C93232B242B252B61F7B801C7010E9497
:1022E0002C17A1960FB6F894DEBF0FBECDBFDF91BD
:1022F000CF911F910F91FF90EF907F906F905F9023
:102300004F900895CF92DF92EF92FF920F931F9319
:10231000CF93DF93EC016A017B01E881F9810190A1
:10232000F081E02D6DE209958C0144275527BA0113
:102330004C195D096E097F092AE0CE010E9439110E
:10234000800F911FDF91CF911F910F91FF90EF9020
:10235000DF90CF9008950895CF93DF931F92CDB76C
:10236000DEB76983DC01ED91FC910280F381E02D01
:1023700041E050E0BE016F5F7F4F09950F90DF9104
:10238000CF910895FC01818D928D0895FC0184897F
:102390009589089525EC31E0FC0131832083FB0110
:1023A0004089518962897389FC0142835383648324
:1023B00075830895DC01ED91FC91028CF38DE02D85
:1023C000099480E00895FC019485FB0184859813AD
:1023D00003C081E0943009F480E0089521E0FC011D
:1023E0008485843009F420E0822F08950895CF93E6
:1023F000DF931F92CDB7DEB7FC01218D328D232BE9
:1024000049F0BE016F5F7F4F808D0E94CC0B8981A8
:1024100090E002C08FEF9FEF0F90DF91CF91089572
:102420000F931F93CF93DF931F92CDB7DEB78C012D
:10243000DC01ED91FC910480F581E02D0995892B5B
:1024400051F0BE016F5F7F4FF80184850E94CC0B75
:10245000898190E002C08FEF9FEF0F90DF91CF91C5
:102460001F910F910895CF93DF93FC01218D328D41
:102470002115310519F48FEF9FEF11C0EC014217C0
:10248000530708F0A901888D0E940D0C1816190633
:1024900094F7298D3A8D281B390B3A8F298FDF91BC
:1024A000CF9108950F931F93CF93DF931F92CDB7D2
:1024B000DEB7FC01218D328D232B61F08C0141E0D0
:1024C00050E0BE016F5F7F4F808D0E940D0C18168B
:1024D00019061CF08FEF9FEF08C0F801818D928DD7
:1024E0000197928F818F898190E00F90DF91CF913A
:1024F0001F910F910895FC0184850C940D0CCF93CE
:10250000DF931F92CDB7DEB741E050E0BE016F5FB1
:102510007F4FFC0184850E940D0C181619061CF4CF
:10252000898190E002C08FEF9FEF0F90DF91CF91F4
:102530000895FC018485843011F00C94EB0B80E04D
:1025400090E008950F931F93CF93DF93CDB7DEB73D
:1025500028970FB6F894DEBF0FBECDBF8C01F801EF
:10256000818D928D892B49F0D801ED91FC910680E7
:10257000F781E02DC8010995F2CF808D0E94EB0B09
:10258000181619065CF548E050E0BE016F5F7F4FFA
:10259000D80158968C910E940D0C9C0118161906B2
:1025A000DCF489819A81AB81BC81F801808B918BAD
:1025B000A28BB38B8D8190E0982F88272E81820F7C
:1025C000911D958B848B2F8130E0322F22278885B7
:1025D000280F311D328F218FC90102C080E090E0A9
:1025E00028960FB6F894DEBF0FBECDBFDF91CF9116
:1025F0001F910F910895AF92BF92CF92DF92FF92F9
:102600000F931F93CF93DF938C015B01EA01FC01D1
:10261000C688D788F08C80E590E00E9425168F2D23
:102620000E94C3108C179D0720F48F2D0E94C310A9
:10263000EC019E01A501B6018F2D0E945E100E9443
:102640002416F801868997898C0F9D1F978B868B9E
:10265000CE01DF91CF911F910F91FF90DF90CF902E
:10266000BF90AF900895CF92DF92EF92FF920F93B9
:102670001F93CF93DF93CDB7DEB7AF970FB6F89424
:10268000DEBF0FBECDBF7C016A0105EC11E01A83ED
:1026900009831C861B8688EE93E0A0E0B0E08D875E
:1026A0009E87AF87B88B8CE391E09A878987188FD4
:1026B0000F8B198E1A8E1B8E1C8E84E089A31DA38E
:1026C0000CA31EA21FA218A619A680911304909114
:1026D0001404A0911504B09116048CA79DA7AEA771
:1026E000BFA78B839C83AD83BE8318861F82AE01F8
:1026F0004C5D5F4FCE0101960E94740281309105BE
:10270000B1F4D701ED91FC910288F389E02D1BA76C
:102710000AA78EA19FA1A8A5B9A58CA79DA7AEA722
:10272000BFA7A601BE01665D7F4FC7010995AF96A1
:102730000FB6F894DEBF0FBECDBFDF91CF911F91D2
:102740000F91FF90EF90DF90CF900895CF93DF939C
:10275000EC01888D843061F00E94600CE88DF0E01F
:10276000EE0FFF1FE25EFA4F1182108284E0888F25
:10277000DF91CF910895EF92FF921F93CF93DF9354
:10278000FC01208D243011F080E01CC07B01EC01A5
:1027900010E0812F0E94B80C811102C0188F05C073
:1027A0008831E1F31F5F1430A1F7888D843061F325
:1027B000FD86EC861A8E198E20E0A70162E00E9449
:1027C000740C81E0DF91CF911F91FF90EF900895FD
:1027D0009B0190E00496982F8827642F820F931F07
:1027E0000C94AA0B0F931F93CF93DF931F92CDB737
:1027F000DEB790E00496982F88278C01060F171FEC
:102800000E942A0B8FE00E94440B812F0E94440BF0
:10281000802F0E94440B80E00E94440B89830E9419
:10282000280B89810F90DF91CF911F910F9108950F
:10283000CF93FC01C08D80E590E00E94251660E2F8
:1028400070E08C2F0E94E60F62E070E08C2F0E94F7
:10285000F21384FD19C062E070E08C2F0E94F21325
:1028600083FF0BC048E162E070E08C2F0E94E81308
:102870000E94241680E090E011C00E94241680E59A
:1028800090E00E942516E0CF40E162E070E08C2FDE
:102890000E94E8130E94241681E090E0CF910895F1
:1028A000CF93DF93C82FD62F472F60E170E00E94AF
:1028B000E8134D2F61E170E08C2FDF91CF910C94E4
:1028C000E813BF92CF92DF92EF92FF920F931F9384
:1028D000CF93DF9300D000D000D0CDB7DEB7FC019E
:1028E000208D243009F053C06A017B018C01B12C8A
:1028F00063E070E08B2D0E94F213811103C0F80198
:10290000B08E06C08831D9F3B394F4E0BF12F0CF93
:10291000F801808D8430D9F196E0EDECF1E0DE0134
:10292000119601900D929A95E1F7F70193819F77A7
:102930009C8394819D8395819E83B7016E5F7F4FB9
:1029400090E0982F882744E050E0845F9B4F0E94DE
:102950007B0BB601F801808D0E945014F801808D28
:1029600090E0982F882746E050E0BE016F5F7F4FD0
:102970008A5F9B4F0E947B0BF801128E118E20E81C
:10298000A60162E0808D0E94740C81E001C080E0AD
:1029900026960FB6F894DEBF0FBECDBFDF91CF9164
:1029A0001F910F91FF90EF90DF90CF90BF9008950F
:1029B000FF920F931F93CF93DF93FB01DC01579698
:1029C0001C921E9256975896FC908281811109C0E4
:1029D0008381811106C08481811103C08581882390
:1029E000F9F041155105E1F08A01EF0180E590E031
:1029F0000E942516BE016E5F7F4F2F2D30E0922F73
:102A0000882744E050E0845F9B4F0E947B0BB80115
:102A10008F2D0E9450140E94241681E090E002C085
:102A200080E090E0DF91CF911F910F91FF9008958A
:102A3000FC018485843011F00C94B80C80E008957A
:102A4000CF93DF93FC0124852430D1F0EC010E9468
:102A50001815843181F0882371F0883161F08C3150
:102A600061F4E881F9810480F581E02DCE010995BA
:102A700021E0892B19F420E001C021E0822F01C060
:102A800080E0DF91CF910895CF92DF92EF92FF9295
:102A90001F93CF93DF93FC0114851430A9F1EC014F
:102AA00080E590E00E94251668E070E0812F0E948A
:102AB000E60F0E9424160E94D20A6B017C01CE010F
:102AC0000E9418158823B1F061E070E080E090E08A
:102AD0000E94980A0E94D20ADC01CB018C199D0940
:102AE000AE09BF09883E9340A105B10540F38C852E
:102AF0000E94600CEC85F0E0EE0FFF1FE25EFA4FE3
:102B00001182108284E08C87DF91CF911F91FF901A
:102B1000EF90DF90CF900895CF93DF931F92CDB7C2
:102B2000DEB76983DC01ED91FC910280F381E02D39
:102B300041E050E0BE016F5F7F4F09950F90DF913C
:102B4000CF910895DC01ED91FC91048CF58DE02D81
:102B5000099591E089270895862F089581E08627B9
:102B60000895CF92DF92EF92FF920F931F93CF932E
:102B7000DF93CDB7DEB7AF970FB6F894DEBF0FBEC9
:102B8000CDBF7C016A0105EC11E01A8309831C8624
:102B90001B8688EE93E0A0E0B0E08D879E87AF872C
:102BA000B88B8CE391E09A878987188F0F8B198EE9
:102BB0001A8E1B8E1C8E84E089A31DA30CA31EA25B
:102BC0001FA218A619A68091130490911404A09135
:102BD0001504B09116048CA79DA7AEA7BFA78B8341
:102BE0009C83AD83BE8318861F82AE014C5D5F4F10
:102BF000CE0101960E94740281309105B1F4D70193
:102C0000ED91FC910484F585E02D1BA70AA78EA108
:102C10009FA1A8A5B9A58CA79DA7AEA7BFA7A601F0
:102C2000BE01665D7F4FC7010995AF960FB6F89458
:102C3000DEBF0FBECDBFDF91CF911F910F91FF90EF
:102C4000EF90DF90CF90089508958CBD9DBD0895BD
:102C50008F929F92AF92BF92CF92DF92EF92FF92AC
:102C60000F931F93CF936C015B017A01FC01C48524
:102C7000C43041F481E090E0F6019383828380E0E8
:102C800090E04EC08A014130584010F000E018E05A
:102C900080E590E00E9425168C2F0E94C3104C0105
:102CA00063E070E08C2F0E94F213873111F08C31B9
:102CB00021F48016910660F302C000E010E080E588
:102CC00090E00E9425169801A50160E070E08C2F2D
:102CD0000E945E1060E270E08C2F0E94E60F62E0BE
:102CE00070E08C2F0E94F21384FD10C063E070E04E
:102CF0008C2F0E94F213811104C08C2F0E94600C53
:102D0000B9CF80E590E00E942516E9CF40E162E06E
:102D100070E08C2F0E94E813012B09F4ABCFC701A0
:102D2000CF911F910F91FF90EF90DF90CF90BF90C8
:102D3000AF909F908F900895CF92DF92FF920F9364
:102D40001F93CF93DF93FC012485243009F077C0D3
:102D50006A01EB018C01F12C8F2D0E94B80C8111BE
:102D600003C0F801F48607C08B7F8831D1F3F39458
:102D7000F4E0FF12F1CFF8018485843009F45FC0DC
:102D800020910601309107012F5F3F4F11F420E0A1
:102D900030EC3093070120930601409106015091D9
:102DA000070120E061E00E94740CF801F4848A813C
:102DB0008F3F51F48B818F3F91F48C818F3F79F459
:102DC0008D818F3F61F438C0811109C08B818111E1
:102DD00006C08C81811103C08D81882369F1C114E3
:102DE000D10451F180E590E00E942516BE016E5F8E
:102DF0007F4F8F2D90E0982F882744E050E0845F2C
:102E00009B4F0E947B0BB6018F2D0E94501464E0F3
:102E100070E08F2D0E94E60FC8010E9418158731BF
:102E200089F061E070E080E090E00E94980AC801BB
:102E30000E9418158111F0CF84E0F801848780E0AA
:102E400090E002C081E090E0DF91CF911F910F915F
:102E5000FF90DF90CF9008956115710579F0FB0127
:102E600001900020E9F73197AF01461B570BDC01B9
:102E7000ED91FC910280F381E02D099480E090E0D7
:102E800008958DE991E09093CA048093C90489EC78
:102E900094E00C943D08CF93DF93CDB7DEB727972E
:102EA0000FB6F894DEBF0FBECDBF789484B58260B4
:102EB00084BD84B5816084BD85B5826085BD85B5DE
:102EC000816085BD80916E00816080936E0010925C
:102ED00081008091810082608093810080918100D7
:102EE0008160809381008091800081608093800068
:102EF0008091B10084608093B1008091B0008160C6
:102F00008093B00080917A00846080937A008091F1
:102F10007A00826080937A0080917A008160809349
:102F20007A0080917A00806880937A001092C100C4
:102F3000E0918403F091850382E08083E091800337
:102F4000F09181031082E0918203F09183038FEC72
:102F5000808310928C03E0918803F091890386E0CE
:102F60008083E0918603F091870380818061808374
:102F7000E0918603F0918703808188608083E091EF
:102F80008603F0918703808180688083E0918603C7
:102F9000F091870380818F7D808383E592E00E949A
:102FA0006C0D8091510381112AC010923903109247
:102FB000380388EE93E0A0E0B0E080933A0390936A
:102FC0003B03A0933C03B0933D038CE391E09093CB
:102FD00037038093360385EC91E09093450380930B
:102FE0004403109246031092470310924803109234
:102FF000490384E080934E0381E08093510383EF83
:1030000092E090931804809317046CE271E080E0E2
:1030100090E00E94980A1FB7F8948091F202811103
:1030200027C0E4EAF0E08491E8EBF0E09491E82F27
:10303000F0E0EE0FFF1FE859FF4FA591B491EC911E
:10304000E92321F461E08AE00E94100A61E08AE04D
:103050000E945C0A8CB580618CBD8CB580648CBD8F
:1030600061E08DE00E945C0A61E08BE00E945C0AF6
:103070008091F2028F5F8093F2021FBF229A80E557
:1030800090E00E94251660E880E090E00E94AA0B84
:1030900065E58BE190E00E94AA0B65E58AE190E08E
:1030A0000E94AA0B0E94241680E090E4909365038E
:1030B0008093640380E090E690936D0380936C03AB
:1030C00080E098E4909367038093660380E098E63D
:1030D00090936F0380936E0380E090E59093690373
:1030E0008093680380E090E790937103809370036E
:1030F00080E098E590936B0380936A0380E098E703
:10310000909373038093720380E590E00E942516EC
:1031100046E050E060E071E089E090E00E947B0BC7
:1031200085EC91E09A8389831B821C821D821E821A
:1031300044E050E0BE016D5F7F4F8FE090E00E9461
:103140007B0B0E9424160091170410911804D801DB
:1031500092961D921D921D921C929597F80116A2AF
:1031600017A210A611A69A961D921D921D921C924E
:103170009D9780E69AEEA0E0B0E086AB97ABA0AF5B
:10318000B1AF80EA9FE0A0E0B0E082AF93AFA4AF20
:10319000B5AFD801189686E0FD01282F11922A9527
:1031A000E9F79801225F3F4F94E1F90111929A9556
:1031B000E9F7E0E0F1E001900D928A95E1F77801FE
:1031C000F2E4EF0EF11CD7011C920E94E51E2FECD9
:1031D00037E040E050E00E942F1FDC01CB01019658
:1031E000A11DB11DF80184839583A683B7838083D5
:1031F0009183A283B3835801F3E4AF0EB11CC501E0
:103200000E94A61364E470E0C5010E94BB13811103
:1032100005C083E692E00E946C0D8AC10E94D20A2A
:103220002B013C01812C912CD12C43E0342E52E017
:10323000C52ED7018C91833009F404C1811121C0BE
:10324000F80184819581A681B7810196A11DB11DE8
:1032500084839583A683B7830E94D20A6419750973
:103260008609970928EE33E040E050E00E94981F5D
:10327000A90161E0C8010E94B50681E0D7018C93E5
:10328000C3C0843001F5F80184819581A681B7819E
:103290000196A11DB11D84839583A683B7830E94E7
:1032A000D20A641975098609970928EE33E040E0CF
:1032B00050E00E94981FA90163E0C8010E94B50672
:1032C000D701CC92A1C0813061F5F80142AD53AD78
:1032D00064AD75AD9E012F5F3F4FC8010E94EF04A2
:1032E000D82EF2E08F1390C089819A81AB81BC8186
:1032F000F80184839583A683B7830E94D20A641958
:1033000075098609970928EE33E040E050E00E94F5
:10331000981FA90163E0C8010E94B506D701DC929D
:1033200079C0823009F070C0F80142AD53AD64AD90
:1033300075AD9E012F5F3F4FC8010E94EF04D82E4C
:10334000F5E08F135BC0D7013C92F80182A193A1F5
:10335000A4A1B5A1892B8A2B8B2B41F424E833E05F
:1033600040E050E022A333A344A355A3F80186A173
:1033700097A1A0A5B1A5892B8A2B8B2B61F482A1E3
:1033800093A1A4A1B5A1B695A7959795879586A376
:1033900097A3A0A7B1A7F80182A593A5A4A5B5A559
:1033A000892B8A2B8B2BA9F482A193A1A4A1B5A16F
:1033B000AC01BD0123E076956795579547952A9511
:1033C000D1F7841B950BA60BB70B82A793A7A4A7D5
:1033D000B5A7F80186A197A1A0A5B1A586A797A733
:1033E000A0ABB1AB82A593A5A4A5B5A582AB93ABC9
:1033F000A4ABB5AB88248394912C0CC0F6E08F135A
:1034000003C0D7011C9206C0BFEFDB1203C0F70157
:103410001082D12CF1E08F16910409F40ACF0E949A
:10342000D20ADC01CB0184199509A609B709F80174
:1034300026A937A940AD51AD281739074A075B07C0
:1034400008F0F7CEC5010E94A613F801848195818A
:10345000A681B7810196A11DB11D84839583A683A2
:10346000B7830E94D20AF801FE966083718382833B
:103470009383F1E08F16910409F056C080E590E047
:103480000E9425166091170470911804625F7F4FA7
:10349000CE0101960E94A80944E050E0BE016D5F94
:1034A0007F4F8FE090E00E947B0B6091170470913A
:1034B00018046A5E7F4FCE0101960E94A80944E07D
:1034C00050E0BE016D5F7F4F81E090E00E947B0B7A
:1034D00060911704709118046E5E7F4FCE010196C3
:1034E0000E94A80944E050E0BE016D5F7F4F85E077
:1034F00090E00E947B0B0E9424166091170470914B
:103500001804625E7F4FCE0101960E94A8098B814C
:103510009C81AD81BE818093130490931404A09389
:103520001504B093160405C0892809F472CE01C0B1
:10353000FFCF85EC91E09A8389831B821C821D82D8
:103540001E8280E590E00E94251644E050E0BE0116
:103550006D5F7F4F8FE090E00E944B0B0E9424161E
:1035600064E773E0CE0101960E9444096BEE71E0BE
:1035700084E793E00E942C171092E4041092E30475
:103580001092E2041092E1041092E0041092DF0421
:103590008DE991E09093E6048093E5049091D50441
:1035A000963108F057C02DEB30E03093E0042093C3
:1035B000DF042BE931E03093E2042093E1042CE2B4
:1035C00031E03093E4042093E304209168009830C4
:1035D00050F031E09E3008F430E081E001C0880F07
:1035E0003A95EAF701C084E0822B80936800983016
:1035F00038F09E3040F0963148F020E030E008C0CE
:103600002DE630E005C02BE630E002C02CE630E0CD
:103610003093DD042093DC04983030F481E001C065
:10362000880F9A95EAF70EC0292F30E09E3018F4E3
:103630002850310902C02E50310981E001C0880FA5
:103640002A95EAF78093DE048091E5049091E604E0
:103650000197F1F78091E3049091E404892B21F123
:103660008091F0029091F10224E0893C9207E1F010
:10367000009711F00E943D088091E7048E7F8093AF
:10368000E7041092EF021092EE0289EC94E090931E
:10369000F1028093F002E091DC04F091DD0490816E
:1036A0008091DE04892B808385EC91E09A83898365
:1036B0008091EA049091EB04A091EC04B091ED04A8
:1036C0008B839C83AD83BE83CE0101960E94DF1065
:1036D00088E491E09093AD048093AC046CED75E0C8
:1036E00080E090E00E94980A8BE892E00E946C0DC6
:1036F00022242394312CEBEF4E2E55245A940E9411
:10370000370D8823B1F00E94370D882309F4A0C13A
:1037100064C089EF91E00E947F0D0E94EE0E882325
:10372000C9F187E192E00E946C0D0E94370D811172
:1037300005C00E94370D882361F3E5CF8091A10475
:103740009091A204019629F09093A2048093A10481
:1037500004C03092A2042092A1048091A10490910F
:10376000A204909326048093270447E050E061E28E
:1037700074E088E992E00E94840DFC01E15EFB4F59
:103780001282AC014450510961E274E082E80E9467
:10379000A50DCFCF81E292E00E947F0D4091BA0447
:1037A0005091BB04052E000C660B770B77FF05C00C
:1037B00084E793E00E94821105C02AE084E793E049
:1037C0000E9439118DE292E00E946C0D68E873E16D
:1037D00080E090E00E94980AACCF0E94D20A6B0170
:1037E0007C018091A7049091A804A091A904B091B4
:1037F000AA04A7019601281B390B4A0B5B0BDA01BF
:10380000C90189399A43A105B105A8F48091A3049F
:103810009091A404A091A504B091A604A7019601DB
:10382000281B390B4A0B5B0BDA01C90189399A4312
:10383000A105B105C8F12091AB0480911F049091BE
:103840002004222371F04CEF5FEF5093BB044093B0
:10385000BA04DC01ED91FC910288F389E02D099511
:10386000F7C0B0ECB093210410922204DC01ED917A
:10387000FC910280F381E02D42E050E061E274E0CF
:103880000995C092A304D092A404E092A504F092FA
:10389000A604C092A704D092A804E092A904F092D2
:1038A000AA04B1E0B093AB0480911F04909120046E
:1038B000DC01ED91FC910480F581E02D0995892BC7
:1038C00009F4C6C0CE0101960E94160E4C01892B48
:1038D00009F4BEC0C092A704D092A804E092A90443
:1038E000F092AA0410912104812F807F803309F087
:1038F00094C06090AC047090AD046114710409F43C
:10390000A7C0ADB6BEB6E981F0E0DF01A15EBB4F56
:1039100013964C91139750E0542F442714968C9192
:10392000480F511DCA0101962DB73EB7281B390B10
:103930000FB6F8943EBF0FBE2DBF8DB79EB7019650
:10394000BC0120E030E02417350769F0D901AE0F43
:10395000BF1FA15EBB4F15960C91DB010D93BD01FE
:103960002F5F3F4FF0CFDC01A20FB31F1C921670E8
:103970001F831230E9F5B9016E0F7F1FDB01A15ED5
:10398000BB4F15960C91159710E0102F0027169637
:103990004C91040F111DA2014E1B5F0B421B530BD8
:1039A000480D591D6A5D7B4FF3010995F0E4F093D2
:1039B00021042F81209322041093230400932404D4
:1039C00080911F0490912004DC01ED91FC91028014
:1039D000F381E02D44E050E061E274E00995C0928B
:1039E000A304D092A404E092A504F092A6040FC010
:1039F0004DEF5FEF4E1B5F0B421B530B480D591DE4
:103A00002E0F3F1FB9016C5D7B4FF30109950FB677
:103A1000F894BEBE0FBEADBE1BC0803CA9F4F0ED55
:103A2000F09321041092220480911F0490912004AD
:103A3000DC01ED91FC910280F381E02D42E050E049
:103A400061E274E0099504C0803D11F41092AB046A
:103A50000E94150954CE85EC91E09093F504809373
:103A6000F4041092F6041092F7041092F8041092E5
:103A7000F904109277031092760348EE53E060E069
:103A800070E0409378035093790360937A037093C6
:103A90007B0329E631E0309375032093740325EC12
:103AA00030E0309381032093800324EC30E03093A6
:103AB00083032093820320EC30E03093850320932E
:103AC000840321EC30E0309387032093860322ECBB
:103AD00030E0309389032093880326EC30E0309364
:103AE0008B0320938A0310928D0310928E03109201
:103AF0008F03109290039093FB048093FA0410922A
:103B0000FC041092FD041092FE041092FF049093A6
:103B10000105809300051092020510920305109292
:103B200004051092050590930705809306051092F1
:103B300008051092090510920A0510920B05909342
:103B40000D0580930C0510920E0510920F05109232
:103B50001005109211059093120480931104109295
:103B600013041092140410921504109216049093EA
:103B70001A048093190410921B0410921C041092D2
:103B80001D0410921E049093130580931205109249
:103B900014051092150510921605109217059093B2
:103BA00019058093180510921A0510921B051092A2
:103BB0001C0510921D059093EF048093EE04109263
:103BC000F0041092F1041092F2041092F304909316
:103BD000E9048093E8048CEA8093EA0484E180930A
:103BE000EB048AE08093EC0482E08093ED04109271
:103BF000CC041092CB044093CD045093CE04609338
:103C0000CF047093D0048DE991E09093CA0480931F
:103C1000C9041092E0041092DF041092E2041092A2
:103C2000E1041092E4041092E3041092E60410926E
:103C3000E5046091E7046E7F6D7F6093E70466950D
:103C4000617081E0682789E00E94100A61E089E0E4
:103C50000E945C0AE7EBF0E0E491E093D904E3EA28
:103C6000F0E0E491F0E0EE0FFF1FEA57FF4F85917F
:103C700094919093DB048093DA0460E088E00E94E2
:103C80005C0A8091E70481FD04C061E088E00E9445
:103C9000100A88E08093D504E6EBF0E0E491E0932D
:103CA000D604E2EAF0E0E491F0E0EE0FFF1FE05707
:103CB000FF4F859194919093D8048093D7041092EC
:103CC000BF041092BE0488EE93E0A0E0B0E08093C1
:103CD000C0049093C104A093C204B093C30489E7C5
:103CE00091E09093BD048093BC0484E08093C80469
:103CF00085EC91E09093AF048093AE041092B004F1
:103D00001092B1041092B2041092B3048FEF9FEF9F
:103D10009093BB048093BA048CEB94E090932004BE
:103D200080931F041092B9041092B80408958F92E2
:103D30009F92AF92BF92CF92DF92EF92FF92CF937A
:103D4000DF93EC01688179818A819B81611571051E
:103D50008105910521F464E279ED8BE597E02DE191
:103D600033EF41E050E00E942F1F49015A019B01AF
:103D7000AC01A7EAB1E40E944E1F6B017C01ACEEDE
:103D8000B4EFA50194010E945C1FDC01CB018C0DF6
:103D90009D1DAE1DBF1DB7FF03C00197A109B0480F
:103DA00088839983AA83BB83BC01CD019F77DF9170
:103DB000CF91FF90EF90DF90CF90BF90AF909F900A
:103DC0008F9008950E94971E089588E091E00E94C8
:103DD000971E0895609308017093090180930A016A
:103DE00090930B0108951F93FC0199278827BC012C
:103DF000E89411911032E9F3193010F01E30C8F335
:103E00001B3251F01D3249F4689406C00E941A1FFB
:103E1000610F711D811D911D119110531A30B0F366
:103E20003EF490958095709561957F4F8F4F9F4F91
:103E30001F910895592F482F372F262F660F771F70
:103E4000881F991F660F771F881F991F620F731FA6
:103E5000841F951F660F771F881F991F0895052ED1
:103E600097FB1EF400940E94461F57FD07D00E9446
:103E7000981F07FC03D04EF40C94461F50954095B4
:103E8000309521953F4F4F4F5F4F08959095809506
:103E9000709561957F4F8F4F9F4F08950E94BA1F75
:103EA000A59F900DB49F900DA49F800D911D11248E
:103EB0000895B7FF0C944E1F0E944E1F821B930B58
:103EC00008952F923F924F925F926F927F928F92BE
:103ED0009F92AF92BF92CF92DF92EF92FF920F9399
:103EE0001F93CF93DF93CDB7DEB7CA1BDB0B0FB6A3
:103EF000F894DEBF0FBECDBF09942A883988488860
:103F00005F846E847D848C849B84AA84B984C884F5
:103F1000DF80EE80FD800C811B81AA81B981CE0FEC
:103F2000D11D0FB6F894DEBF0FBECDBFED010895D1
:103F3000A1E21A2EAA1BBB1BFD010DC0AA1FBB1FAD
:103F4000EE1FFF1FA217B307E407F50720F0A21B1F
:103F5000B30BE40BF50B661F771F881F991F1A948C
:103F600069F760957095809590959B01AC01BD01B6
:103F7000CF010895A29FB001B39FC001A39F700D10
:103F8000811D1124911DB29F700D811D1124911D61
:103F9000089597FB072E16F4009407D077FD09D0FB
:103FA0000E94E41F07FC05D03EF4909581959F4F39
:103FB0000895709561957F4F089569279627692721
:103FC0007827872778270895AA1BBB1B51E107C0D4
:103FD000AA1FBB1FA617B70710F0A61BB70B881F99
:103FE000991F5A95A9F780959095BC01CD01089528
:103FF000EE0FFF1F0590F491E02D0994CF93DF930E
:104000008230910510F482E090E0E0912805F09173
:10401000290520E030E0C0E0D0E0309711F1408188
:10402000518148175907C0F04817590761F4828138
:104030009381209719F09B838A832BC09093290545
:104040008093280526C02115310519F04217530722
:1040500018F49A01BE01DF01EF010280F381E02D27
:10406000DCCF2115310509F1281B390B243031052E
:1040700090F412968D919C9113976115710521F022
:10408000FB019383828304C09093290580932805C4
:10409000FD01329644C0FD01E20FF31F819391931D
:1040A000225031092D933C933AC02091260530913E
:1040B0002705232B41F420910E0130910F013093FD
:1040C00027052093260520910C0130910D01211523
:1040D000310541F42DB73EB74091100150911101C7
:1040E000241B350BE0912605F0912705E217F30715
:1040F000A0F42E1B3F0B2817390778F0AC014E5F58
:104100005F4F2417350748F04E0F5F1F5093270568
:10411000409326058193919302C0E0E0F0E0CF0147
:10412000DF91CF9108950F931F93CF93DF93009763
:1041300009F48CC0FC013297138212820091280589
:10414000109129050115110581F420813181820F1B
:10415000931F20912605309127052817390779F5F7
:10416000F0932705E093260571C0D80140E050E0A8
:10417000AE17BF0750F412962D913C911397AD01E5
:104180002115310509F1D901F3CF9D01DA013383FE
:10419000228360817181860F971F8217930769F4CC
:1041A000EC0128813981260F371F2E5F3F4F318365
:1041B00020838A819B8193838283452B29F4F0930A
:1041C0002905E093280542C01396FC93EE931297BD
:1041D000ED01499159919E01240F351FE217F30714
:1041E00071F480819181840F951F029611969C93A2
:1041F0008E938281938113969C938E931297E0E025
:10420000F0E0D80112968D919C911397009719F0C8
:10421000F8018C01F6CF8D919C9198012E5F3F4F54
:10422000820F931F20912605309127052817390703
:1042300069F4309729F4109229051092280502C0DC
:10424000138212821093270500932605DF91CF91E8
:104250001F910F910895A0E0B0E0E1E3F1E20C942A
:10426000651FEC01009721F4CB010E94FE1FB8C02E
:10427000FC01E60FF71F9C0122503109E217F307FA
:1042800008F4ACC0D9010D911C91119706171707BE
:10429000B0F00530110508F49FC0C80104978617D7
:1042A000970708F499C002501109061B170B0193D8
:1042B00011936D937C93CF010E9493208DC05B017D
:1042C000A01AB10A4C01800E911EA0912805B09150
:1042D000290540E050E0E12CF12C109709F44AC088
:1042E000A815B905D1F56D907C901197630182E016
:1042F000C80ED11CCA14DB0480F1A3014A195B0962
:104300006A0182E0C80ED11C1296BC9012971396D7
:10431000AC91B5E0CB16D10440F0B282A3835183B7
:104320004083D9016D937C930AC00E5F1F4FC30178
:10433000800F911FF90191838083EB2DFA2FE114F7
:10434000F10431F0D7011396FC93EE93129744C019
:10435000F0932905E09328053FC08D919C9111971A
:104360004817590708F4AC017D0112960D90BC91D5
:10437000A02DB3CF8091260590912705881599052A
:10438000E1F446175707C8F480910C0190910D0194
:10439000009741F48DB79EB74091100150911101E3
:1043A000841B950BE817F907C8F4F0932705E093F1
:1043B0002605F901718360830FC0CB010E94FE1FA7
:1043C0007C01009759F0A801BE010E940722CE018E
:1043D0000E949320C70104C0CE0102C080E090E09B
:1043E000CDB7DEB7EEE00C94811F81E090E0F89449
:1043F0000C941722FB01DC0104C08D9101908019FF
:1044000021F441505040C8F7881B990B0895FB01D7
:10441000DC0102C001900D9241505040D8F7089540
:10442000FB01DC0101900D920020E1F7089510E0FE
:10443000C2E6D0E004C0FE010E94F81F2196C336F8
:08444000D107C9F7F894FFCF82
:10444800DEEDBAFEFEED00C00100000000002A0506
:104458008000000000008E098E098E098E098E09E1
:104468008E098E09E1118E098E098E098E098E0931
:104478008E098E098E098E0900000000AC11FB120E
:10448800C2115212F711AB11BB136114A613D81441
:1044980033131814A2123312DA11CA11C611000408
:1044A8004D5154540400000000AC08D10C75085359
:1044B800086708F308000000008C15281699127F79
:1044C800121012F6119C16B1157B1244152015EE28
:1044D80011AE15AC15E311A21500000000BB00D108
:1044E8000C0F012701A200BA00000000008E09D1BC
:1044F8000C8E098E098E098E09000000008E09D1E4
:104508000C000000004409000000008E0901005E54
:104518000000004D6573736167652061727269768A
:104528006564205B005D20002D3E000D0A00776168
:104538006974696E672E2E2E00417474656D7074EF
:10454800696E67204D51545420636F6E6E656374B5
:10455800696F6E2E2E2E00636F6E6E6563746564D0
:10456800006661696C65642C2072633D002074727A
:104578007920616761696E20696E203520736563F3
:104588006F6E647300643273004F4B0057495A6E64
:10459800657400696E697469616C697A696E672E01
:1045A8002E2E004661696C656420746F20636F6EFF
:1045B8006669677572652045746865726E657420F2
:1045C8007573696E67204448435000696E69746961
:1045D800616C697A65642E007332642F323400612D
:0E45E800726475696E6F436C69656E740000D5
:107E0000112484B714BE81FFF0D085E080938100F7
:107E100082E08093C00088E18093C10086E0809377
:107E2000C20080E18093C4008EE0C9D0259A86E02C
:107E300020E33CEF91E0309385002093840096BBD3
:107E4000B09BFECF1D9AA8958150A9F7CC24DD24C4
:107E500088248394B5E0AB2EA1E19A2EF3E0BF2EE7
:107E6000A2D0813461F49FD0082FAFD0023811F036
:107E7000013811F484E001C083E08DD089C08234E0
:107E800011F484E103C0853419F485E0A6D080C0E4
:107E9000853579F488D0E82EFF2485D0082F10E0AE
:107EA000102F00270E291F29000F111F8ED06801E7
:107EB0006FC0863521F484E090D080E0DECF843638
:107EC00009F040C070D06FD0082F6DD080E0C81688
:107ED00080E7D80618F4F601B7BEE895C0E0D1E017
:107EE00062D089930C17E1F7F0E0CF16F0E7DF06D8
:107EF00018F0F601B7BEE89568D007B600FCFDCFD4
:107F0000A601A0E0B1E02C9130E011968C91119780
:107F100090E0982F8827822B932B1296FA010C0160
:107F200087BEE89511244E5F5F4FF1E0A038BF0790
:107F300051F7F601A7BEE89507B600FCFDCF97BE46
:107F4000E89526C08437B1F42ED02DD0F82E2BD052
:107F50003CD0F601EF2C8F010F5F1F4F84911BD097
:107F6000EA94F801C1F70894C11CD11CFA94CF0C13
:107F7000D11C0EC0853739F428D08EE10CD085E9AC
:107F80000AD08FE07ACF813511F488E018D01DD067
:107F900080E101D065CF982F8091C00085FFFCCF94
:107FA0009093C60008958091C00087FFFCCF809118
:107FB000C00084FD01C0A8958091C6000895E0E648
:107FC000F0E098E1908380830895EDDF803219F02E
:107FD00088E0F5DFFFCF84E1DECF1F93182FE3DFCA
:107FE0001150E9F7F2DF1F91089580E0E8DFEE27F6
:047FF000FF270994CA
:027FFE00040479
:0400000300007E007B
:00000001FF