:100000000C9463000C948B000C948B000C94D00423
:100010000C94D0040C94D0040C948B000C948B00A2
:100020000C948B000C948B000C948B000C948B0024
:100030000C948B000C948B000C948B000C948B0014
:100040000C9486040C948B000C9454040C942E0491
:100050000C948B000C948B000C948B000C948B00F4
:100060000C948B000C948B000000000024002700EF
:100070002A0000000008000201000003040700003D
:1000800000000000000000000000250028002B00F8
:1000900000000000230026002900040404040404D6
:1000A0000404020202020202030303030303010227
:1000B00004081020408001020408102001020408F6
:1000C00010204A05530811241FBECFEFD8E0DEBF31
:1000D000CDBF22E0A0E5B1E001C01D92AD36B20770
:1000E000E1F711E0A0E0B1E0E2EBF1E102C0059040
:1000F0000D92A035B107D9F710E0C2E6D0E004C0F8
:100100002197FE010E94C108C136D107C9F70E949C
:100110001B060C94CC080C940000CF92DF92EF9257
:10012000FF920F931F93CF93DF936C017A018B01A2
:10013000C0E0D0E0CE15DF0589F0D8016D918D01CA
:10014000D601ED91FC910190F081E02DC601099559
:10015000892B11F47E0102C02196ECCFC701DF91FB
:10016000CF911F910F91FF90EF90DF90CF90089566
:10017000FC01918D828D981761F0828DDF01A80FAF
:10018000B11D5D968C91928D9F5F9F73928F90E0D1
:1001900008958FEF9FEF0895FC01918D828D981740
:1001A00031F0828DE80FF11D858D90E008958FEF7D
:1001B0009FEF0895FC01918D228D892F90E0805C46
:1001C0009F4F821B91098F739927089585EA91E0CB
:1001D0000E94DA0021E0892B09F420E0822F0895A3
:1001E000FC01848DDF01A80FB11DA35ABF4F2C91D4
:1001F000848D90E001968F739927848FA689B789A3
:100200002C93A089B1898C9180648C93938D848D7B
:10021000981306C00288F389E02D80818F7D80834A
:100220000895EF92FF920F931F93CF93DF93EC010A
:1002300081E0888F9B8D8C8D981305C0E889F989A2
:10024000808185FD24C0F62E0B8D10E00F5F1F4FBF
:100250000F731127E02E8C8DE8120CC00FB607FC2F
:10026000FACFE889F989808185FFF5CFCE010E9418
:10027000F000F1CF8B8DFE01E80FF11DE35AFF4F27
:10028000F0820B8FEA89FB898081806207C0EE894A
:10029000FF896083E889F98980818064808381E0B7
:1002A00090E0DF91CF911F910F91FF90EF90089513
:1002B000CF93DF93EC01888D8823C9F0EA89FB890D
:1002C000808185FD05C0A889B9898C9186FD0FC004
:1002D0000FB607FCF5CF808185FFF2CFA889B989D9
:1002E0008C9185FFEDCFCE010E94F000E7CFDF912A
:1002F000CF91089580E090E0892B29F00E94E600DC
:1003000081110C9400000895833081F028F481302D
:1003100099F08230A1F008958730A9F08830B9F0C3
:100320008430D1F4809180008F7D03C08091800063
:100330008F7780938000089584B58F7702C084B54D
:100340008F7D84BD08958091B0008F7703C0809128
:10035000B0008F7D8093B00008951F93CF93DF93FB
:10036000282F30E0F901EE58FF4F8491F901E25552
:10037000FF4FD491F901E656FF4FC491CC23C9F049
:10038000162F81110E948401EC2FF0E0EE0FFF1F69
:10039000EA57FF4FA591B4918FB7F894111105C09A
:1003A0009C91ED2FE095E92302C0EC91ED2BEC93AD
:1003B0008FBFDF91CF911F910895CF93DF9390E08E
:1003C000FC01E255FF4F2491FC01E656FF4F84915A
:1003D000882361F190E0880F991FFC01E859FF4FD5
:1003E000C591D491FC01EA57FF4FA591B4916111D9
:1003F00009C09FB7F8948881209582238883EC9167
:100400002E230BC0623061F49FB7F8943881822F9D
:10041000809583238883EC912E2B2C939FBF06C05D
:100420008FB7F894E8812E2B28838FBFDF91CF916F
:1004300008953FB7F8948091950190919601A0910D
:100440009701B091980126B5A89B05C02F3F19F0E0
:100450000196A11DB11D3FBFBA2FA92F982F882744
:10046000820F911DA11DB11DBC01CD0142E0660F9F
:10047000771F881F991F4A95D1F708958F929F92F1
:10048000AF92BF92CF92DF92EF92FF926B017C010D
:100490000E9419024B015C01C114D104E104F10472
:1004A000F1F00E941902DC01CB0188199909AA090F
:1004B000BB09883E9340A105B10570F321E0C21A43
:1004C000D108E108F10888EE880E83E0981EA11C8F
:1004D000B11CC114D104E104F10419F7DDCFFF9080
:1004E000EF90DF90CF90BF90AF909F908F90089546
:1004F0002FB7F894609191017091920180919301CE
:10050000909194012FBF08950F931F93CF93DF9382
:10051000EC010E947802688779878A879B87E88147
:10052000F9810084F185E02DCE01099597FF17C070
:100530000E947802088519852A853B85DC01CB015C
:10054000801B910BA20BB30B0C811D812E813F816F
:1005500080179107A207B30710F38FEF9FEFDF918A
:10056000CF911F910F91089520919B0130919C0193
:100570002817390771F49091990180919A01981781
:1005800041F0E0919901F0E0E05BFE4F808190E066
:1005900008958FEF9FEF089508951F93CF93DF93F2
:1005A000DC015C962D913C915D972115310539F464
:1005B00081E090E013969C938E9312973DC05196E4
:1005C000ED91FC91529750969C915097892F809570
:1005D0001FB75E964C915E9741FB772770F941FDFE
:1005E0006095F8944081772311F0492B01C048238E
:1005F0004083E9012197F1F748E0508160FF02C094
:10060000592B01C058235083E9012197F1F76695D2
:10061000415099F7772321F090818923808303C08B
:100620008081982B90831FBF5C968D919C915D97E4
:100630000197F1F721E030E0C901DF91CF911F91DF
:10064000089520919B0130919C012817390771F47E
:1006500080919A012091990190E0805C9F4F821BCC
:10066000910960E470E00E947708089580E090E0CE
:10067000089520919B0130919C0128173907B9F406
:100680009091990180919A01981789F0E0919901D0
:10069000F0E0E05BFE4F80812091990130E02F5F18
:1006A0003F4F2F7333272093990190E008958FEFE8
:1006B0009FEF0895E0919B01F0919C01E817F907E5
:1006C00069F4A389B4899C918589809589238C9349
:1006D00010929C0110929B0181E0089580E00895A2
:1006E0006115710579F0FB0101900020E9F7319760
:1006F000AF01461B570BDC01ED91FC910280F381A9
:10070000E02D099480E090E008954F925F926F92FF
:100710007F92EF92FF920F931F93CF93DF93CDB70A
:10072000DEB7A1970FB6F894DEBF0FBECDBF7C0138
:10073000FA01CB0119A2223008F42AE08E010F5DE4
:100740001F4F422E512C612C712CBF01A30192012D
:100750000E948B08F901CA01015011096A3014F492
:10076000605D01C0695CD8016C93232B242B252B81
:1007700061F7B801C7010E947003A1960FB6F89403
:10078000DEBF0FBECDBFDF91CF911F910F91FF90C4
:10079000EF907F906F905F904F9008958F929F920F
:1007A000AF92BF92CF92DF92EF92FF920F931F937F
:1007B000CF93DF937C01EB016C0182E0C80ED11C6A
:1007C0004701E5E08E0E911C00E010E0F60141913A
:1007D0006F0150E060E070E02AE0CE010E948503E6
:1007E0005C01E881F9810190F081E02D6EE2CE019B
:1007F00009958A0D9B1D080F191FC814D90431F7DC
:10080000F701458150E060E070E02AE0CE010E94EF
:100810008503800F911FDF91CF911F910F91FF9062
:10082000EF90DF90CF90BF90AF909F908F90089502
:100830000F931F93CF93DF93EC010E9470038C0101
:1008400066E271E0CE010E947003800F911FDF917C
:10085000CF911F910F9108950E94C7081F920F9288
:100860000FB60F9211242F933F934F935F936F9383
:100870007F938F939F93AF93BF93EF93FF9385EAFB
:1008800091E00E94F000FF91EF91BF91AF919F9195
:100890008F917F916F915F914F913F912F910F9029
:1008A0000FBE0F901F9018951F920F920FB60F92C8
:1008B00011242F938F939F93EF93FF93E091B501B2
:1008C000F091B6018081E091BB01F091BC0182FD05
:1008D00012C090818091BE018F5F8F732091BF0104
:1008E000821751F0E091BE01F0E0EB55FE4F958F7D
:1008F0008093BE0101C08081FF91EF919F918F9104
:100900002F910F900FBE0F901F9018951F920F926E
:100910000FB60F9211242F933F938F939F93AF9312
:10092000BF938091910190919201A0919301B09118
:1009300094013091900123E0230F2D3720F401968C
:10094000A11DB11D05C026E8230F0296A11DB11DF2
:10095000209390018093910190939201A093930131
:10096000B09394018091950190919601A091970187
:10097000B09198010196A11DB11D809395019093AE
:100980009601A0939701B0939801BF91AF919F9169
:100990008F913F912F910F900FBE0F901F90189540
:1009A0001F920F920FB60F9211242F933F934F93E4
:1009B0005F936F937F938F939F93AF93BF93EF93C7
:1009C000FF93E0919B01F0919C01309709F451C095
:1009D000968DA685B785858591FF04C09C91892356
:1009E00029F447C09C91892309F043C0A389B489A5
:1009F0009C918589809589238C9386899789019715
:100A0000F1F7608D718DA685B785558538E020E0BA
:100A1000CB010197F1F7822F90E095958795282FCC
:100A20004C91452309F02068315091F7868D81FD66
:100A3000209580919A0190E001968F7399273091CB
:100A40009901381749F0A0919A01B0E0A05BBE4F20
:100A50002C9380939A0103C0868D8160868F828D4E
:100A6000938D0197F1F7A389B4899C918589892B8E
:100A70008C93FF91EF91BF91AF919F918F917F9157
:100A80006F915F914F913F912F910F900FBE0F90FB
:100A90001F90189584E291E09093A00180939F01AC
:100AA0001092A1011092A2011092A3011092A40130
:100AB0001092A8011092A70148EE53E060E070E0A8
:100AC0004093A9015093AA016093AB017093AC01CC
:100AD00024E031E03093A6012093A50125EC30E01D
:100AE0003093B2012093B10124EC30E03093B40193
:100AF0002093B30120EC30E03093B6012093B50190
:100B000021EC30E03093B8012093B70122EC30E0C3
:100B10003093BA012093B90126EC30E03093BC0148
:100B20002093BB011092BE011092BF011092C00130
:100B30001092C101909343028093420210924402AA
:100B4000109245021092460210924702909368025A
:100B5000809367021092690210926A0210926B02EF
:100B600010926C0210924B0210924A0240934C0277
:100B700050934D0260934E0270934F0284E191E0D6
:100B8000909349028093480210925F0210925E0295
:100B9000109261021092600210926302109262023F
:100BA0001092650210926402609166026E7F6D7F02
:100BB000609366026695617081E0682789E00E9413
:100BC000AD0161E089E00E94DD01E7EBF0E0E49136
:100BD000E0935802E3EAF0E0E491F0E0EE0FFF1F4B
:100BE000EA57FF4F8591949190935A02809359024E
:100BF00060E088E00E94DD018091660281FD04C012
:100C000061E088E00E94AD0188E080935402E6EB49
:100C1000F0E0E491E0935502E2EAF0E0E491F0E0E4
:100C2000EE0FFF1FE057FF4F85919491909357026D
:100C3000809356020895CF93DF9300D000D000D068
:100C4000CDB7DEB7789484B5826084BD84B5816009
:100C500084BD85B5826085BD85B5816085BD809187
:100C60006E00816080936E001092810080918100FF
:100C700082608093810080918100816080938100F7
:100C8000809180008160809380008091B1008460B9
:100C90008093B1008091B00081608093B00080911A
:100CA0007A00846080937A0080917A0082608093D9
:100CB0007A0080917A00816080937A0080917A0036
:100CC000806880937A001092C10061E083E00E9406
:100CD000DD0161E082E00E94DD0161E084E00E94CC
:100CE000DD0161E084E00E94AD0160E087E00E94E8
:100CF000DD01E091B501F091B60182E08083E091E1
:100D0000B101F091B2011082E091B301F091B40110
:100D10008FEC80831092BD01E091B901F091BA018E
:100D200086E08083E091B701F091B8018081806115
:100D30008083E091B701F091B80180818860808361
:100D4000E091B701F091B801808180688083E091E3
:100D5000B701F091B80180818F7D8083109263028A
:100D600010926202109261021092600210925F0271
:100D700010925E028DE991E0909365028093640287
:100D800090915402963108F057C02DEB30E030932B
:100D90005F0220935E022BE931E0309361022093E1
:100DA00060022CE231E030936302209362022091D2
:100DB0006800983050F031E09E3008F430E081E077
:100DC00001C0880F3A95EAF701C084E0822B809336
:100DD0006800983038F09E3040F0963148F020E0BE
:100DE00030E008C02DE630E005C02BE630E002C060
:100DF0002CE630E030935C0220935B02983030F4B4
:100E000081E001C0880F9A95EAF70EC0292F30E0E3
:100E10009E3018F42850310902C02E50310981E06B
:100E200001C0880F2A95EAF780935D0280916402E1
:100E3000909165020197F1F78091620290916302AF
:100E4000892B21F180919B0190919C0122E08834B3
:100E50009207E1F0009711F00E945A038091660218
:100E60008E7F8093660210929A011092990188E415
:100E700092E090939C0180939B01E0915B02F09142
:100E80005C02908180915D02892B808388E492E0EE
:100E900090939E0180939D0149E7842E40E0942E1B
:100EA00055EBC52E50E0D52E6BE9E62E6FE0F62E01
:100EB00080919D0190919E01DC01ED91FC91048057
:100EC000F581E02D0995892B09F4C4C069E271E030
:100ED00085EA91E00E94180400919D0110919E0105
:100EE000C8010E948402FC0197FD0FC08D3291055C
:100EF00081F0C0970A9768F0D801ED91FC910680C7
:100F0000F781E02DC8010995EBCF80E090E0DC018E
:100F10002CC020E030E0A901B12CE130F10509F04E
:100F20009FC0D801ED91FC910680F781E02DC801AA
:100F300029833A834B835C830995C8010E9484020C
:100F4000FC01C09729813A814B815C810A9728F383
:100F5000E130F10511F3BB2009F4A2C088279927DD
:100F6000DC01821B930BA40BB50B9E838D8360E089
:100F700084E00E94AD0131EAA32E30E0B32EAD81B2
:100F8000BE811A161B060CF05BC00E9478022B0172
:100F90003C0100E010E00E947802DC01CB018419E2
:100FA0009509A609B7098A3F9105A105B105F8F48D
:100FB000F4018491F6013490F5012490222081F00F
:100FC00081110E948401822D90E0880F991F805723
:100FD0009F4FFC01A591B4918C91382209F03DC03E
:100FE00061E070E080E090E00E943E02D4CF0430E7
:100FF0001105A4F402E310E061E083E00E94AD017A
:10100000C7010197F1F760E083E00E94AD01C701DD
:101010000197F1F70150110979F7B7CF8D819E81C2
:1010200001979E838D836AE371E085EA91E00E94D7
:10103000180468EE73E080E090E00E943E029FCFCB
:1010400061E084E00E94AD016DE471E088E492E02B
:101050000E9418040E947A012BCF0F5F1F4FC0CF50
:10106000ED32F105D1F0CF01C0970A9708F059CFC2
:10107000AAE0B0E00E945D082F01FF0F6608770824
:10108000DC01CB01840D951DA61DB71D9C01AD0192
:10109000205331094109510944CFBB24B39441CFB6
:1010A000DA01C90162CF84E191E090934902809313
:1010B000480288E492E00C945A030E946808A59FB5
:1010C000900DB49F900DA49F800D911D1124089543
:1010D000A29FB001B39FC001A39F700D811D112479
:1010E000911DB29F700D811D1124911D089597FBD4
:1010F000072E16F4009407D077FD09D00E94AD08A2
:1011000007FC05D03EF4909581959F4F089570950A
:1011100061957F4F0895A1E21A2EAA1BBB1BFD010A
:101120000DC0AA1FBB1FEE1FFF1FA217B307E407C6
:10113000F50720F0A21BB30BE40BF50B661F771F1E
:10114000881F991F1A9469F76095709580959095FE
:101150009B01AC01BD01CF010895AA1BBB1B51E14E
:1011600007C0AA1FBB1FA617B70710F0A61BB70B17
:10117000881F991F5A95A9F780959095BC01CD01BC
:101180000895EE0FFF1F0590F491E02D099481E082
:1011900090E0F8940C94CC0810E0C2E6D0E004C0D3
:1011A000FE010E94C1082196C336D107C9F7F89401
:0211B000FFCF6F
:1011B2000000000011018D00DA00B800CC005801D7
:1011C20000000000CD028D0021033903B402CC02DD
:1011D20000000000CE030D0A005265636965766562
:1011E2006420636F6D6D616E640052656C6561733E
:1011F20065642031207061636B616765004F4B004D
:107800000C94343C0C94513C0C94513C0C94513CE1
:107810000C94513C0C94513C0C94513C0C94513CB4
:107820000C94513C0C94513C0C94513C0C94513CA4
:107830000C94513C0C94513C0C94513C0C94513C94
:107840000C94513C0C94513C0C94513C0C94513C84
:107850000C94513C0C94513C0C94513C0C94513C74
:107860000C94513C0C94513C11241FBECFEFD8E036
:10787000DEBFCDBF11E0A0E0B1E0ECE9FFE702C060
:1078800005900D92A230B107D9F712E0A2E0B1E065
:1078900001C01D92AD30B107E1F70E942D3D0C945F
:1078A000CC3F0C94003C982F959595959595959582
:1078B000905D8F708A307CF0282F295A8091C0000B
:1078C00085FFFCCF9093C6008091C00085FFFCCF60
:1078D0002093C6000895282F205DF0CF982F809127
:1078E000C00085FFFCCF9093C6000895EF92FF92F1
:1078F0000F931F93EE24FF2487018091C00087FD22
:1079000017C00894E11CF11C011D111D81E4E8164B
:1079100082E4F8068FE0080780E0180770F3E09132
:107920000401F091050109958091C00087FFE9CF1E
:107930008091C6001F910F91FF90EF9008950E94D3
:10794000763C982F8091C00085FFFCCF9093C600B5
:1079500091362CF490330CF09053892F089597555D
:10796000892F08951F930E949F3C182F0E949F3CCF
:107970001295107F810F1F9108951F93182F882350
:1079800021F00E94763C1150E1F71F9108951F935A
:10799000182F0E94763C803249F0809103018F5F5E
:1079A000809303018530C1F01F9108958091C0003C
:1079B00085FFFCCF84E18093C6008091C00085FFE5
:1079C000FCCF1093C6008091C00085FFFCCF80E102
:1079D0008093C6001F910895E0910401F091050184
:1079E00009951F9108950E94763C803241F0809164
:1079F00003018F5F80930301853081F008958091AA
:107A0000C00085FFFCCF84E18093C6008091C00058
:107A100085FFFCCF80E18093C6000895E0910401CA
:107A2000F09105010995089540E951E08823A1F0FE
:107A30002D9A28EE33E0FA013197F1F721503040CA
:107A4000D1F72D9828EE33E0FA013197F1F7215064
:107A50003040D1F7815061F708953F924F925F9285
:107A60006F927F928F929F92AF92BF92CF92DF924E
:107A7000EF92FF920F931F93CF93DF93000080E16B
:107A80008093C4001092C50088E18093C10086E015
:107A90008093C2005098589A259A81E00E94143D24
:107AA00024E1F22E9EE1E92E85E9D82E0FE0C02ECA
:107AB00010E1B12EAA24A394B1E49B2EA6E58A2E50
:107AC000F2E57F2EE0E26E2E79E4572E63E5462E36
:107AD00050E5352E0E94763C8033B1F18133B9F107
:107AE000803409F46FC0813409F476C0823409F41B
:107AF00085C0853409F488C0803531F1823521F1A3
:107B0000813511F1853509F485C0863509F48DC0BC
:107B1000843609F496C0843709F403C1853709F423
:107B200072C1863709F466C0809103018F5F80932C
:107B30000301853079F6E0910401F0910501099582
:107B40000E94763C803351F60E94F33CC3CF0E94E2
:107B5000763C803249F78091C00085FFFCCFF092DF
:107B6000C6008091C00085FFFCCF9092C600809136
:107B7000C00085FFFCCF8092C6008091C00085FFC9
:107B8000FCCF7092C6008091C00085FFFCCF609250
:107B9000C6008091C00085FFFCCF5092C600809146
:107BA000C00085FFFCCF4092C6008091C00085FFD9
:107BB000FCCF3092C6008091C00085FFFCCFB09210
:107BC000C60088CF0E94763C863808F4BDCF0E945C
:107BD000763C0E94F33C7ECF0E94763C803809F4CC
:107BE0009CC0813809F40BC1823809F43CC1883942
:107BF00009F48FC080E00E94C73C6CCF84E10E94F2
:107C0000BD3C0E94F33C66CF85E00E94BD3C0E94D3
:107C1000F33C60CF0E94763C809306010E94763C44
:107C2000809307010E94F33C55CF0E94763C80333D
:107C300009F41DC183E00E94BD3C80E00E94C73C66
:107C400049CF0E94763C809309020E94763C809343
:107C5000080280910C028E7F80930C020E94763C79
:107C6000853409F415C18091080290910902892B8D
:107C700089F000E010E00E94763CF801E85FFE4FDA
:107C800080830F5F1F4F80910802909109020817AF
:107C9000190788F30E94763C803209F045CF809125
:107CA0000C0280FF01C16091060170910701660F0F
:107CB000771F7093070160930601A0910802B091AD
:107CC00009021097C9F0E8E0F1E09B01AD014E0F09
:107CD0005F1FF999FECF32BD21BD819180BDFA9A17
:107CE000F99A2F5F3F4FE417F50799F76A0F7B1F4B
:107CF00070930701609306018091C00085FFFCCF5F
:107D0000F092C6008091C00085FFFCCFB092C60003
:107D1000E1CE83E00E94C73CDDCE82E00E94C73CFA
:107D2000D9CE0E94763C809309020E94763C8093D3
:107D300008028091060190910701880F991F909386
:107D40000701809306010E94763C853409F4A6C0A1
:107D500080910C028E7F80930C020E94763C8032D0
:107D600009F0B8CE8091C00085FFFCCFF092C6002C
:107D7000609108027091090261157105B9F140E046
:107D800050E080910C02A82FA170B82FB27011C0E2
:107D9000BB2309F45CC0E0910601F0910701319624
:107DA000F0930701E09306014F5F5F4F46175707B7
:107DB000E8F4AA2369F3F999FECF209106013091E6
:107DC000070132BD21BDF89A90B58091C00085FFB2
:107DD000FCCF9093C6002F5F3F4F30930701209355
:107DE00006014F5F5F4F4617570718F38091C00099
:107DF00085FDE5CE8091C00085FFF8CFE0CE81E023
:107E00000E94C73C67CE0E94763C803209F08CCE3F
:107E10008091C00085FFFCCFF092C6008091C00029
:107E200085FFFCCFE092C6008091C00085FFFCCFAB
:107E3000D092C6008091C00085FFFCCFC092C600E2
:107E40008091C00085FFFCCFB092C60043CEE09188
:107E50000601F091070194918091C00085FFFCCF4D
:107E60009093C6009CCF80E10E94C73C33CE0E9415
:107E7000763C0E94763C182F0E94763C112309F430
:107E800083C0113009F484C08FE00E94C73C22CE29
:107E900080910C02816080930C02E5CE80910C02EF
:107EA000816080930C0259CF809107018823880F4D
:107EB000880B8A2180930B02809106019091070123
:107EC000880F991F90930701809306018091080203
:107ED00080FF09C080910802909109020196909359
:107EE000090280930802F894F999FECF1127E091D6
:107EF0000601F0910701C8E0D1E08091080290915D
:107F00000902103091F40091570001700130D9F34B
:107F100003E000935700E89500915700017001308D
:107F2000D9F301E100935700E89509901990009169
:107F3000570001700130D9F301E000935700E89534
:107F40001395103498F011270091570001700130FB
:107F5000D9F305E000935700E895009157000170B0
:107F60000130D9F301E100935700E895329602976A
:107F700009F0C7CF103011F00296E5CF112480919F
:107F8000C00085FFB9CEBCCE8EE10E94C73CA2CD19
:0C7F900085E90E94C73C9ECDF894FFCF0D
:027F9C00800063
:040000030000780081
:00000001FF